:10000000F8FF002011040000AB380000AB380000FE
:10001000AB380000AB380000AB380000AB38000054
:10002000AB380000AB380000AB380000AB38000044
:10003000AB380000AB380000AB380000AB38000034
:10004000AB380000AB380000AB380000AB38000024
:10040000FFFFFFFFFFFFFFFFFFFFFFFFFEFFFFFFFD
:1004100062B606F047FCFEE72DE9F04FA1B0824638
:1004200002AE002017461D46029170620DF144088D
:100430000AE017F8011B0298D0470290002800F04C
:10044000D482706A401C7062387808B9706ACEE253
:100450002528EED10020F06030617061B061F0615C
:10046000306201E040F0010017F8011F2029F9D0A7
:1004700023290DD02B2904D02D2906D030290AD0CC
:100480000CE040F0020080B2EEE740F00400FAE732
:1004900040F00800F7E740F01000F4E72A290DD1FA
:1004A00029680A1D2A600968F162002904D54942B9
:1004B00040F00400F16280B27F1C13E00021F16281
:1004C0000BE0F16A6FF00043994205D001EB810324
:1004D00002EB43013039F1627F1C3A78A2F130011E
:1004E0000A29EED339782E2903D04FF0FF31B162BB
:1004F0001EE017F8011F2A2906D129680A1D2A6063
:100500007F1C0968B16213E00021B1620BE0B16A9F
:100510006FF00043994205D001EB810302EB4301E8
:100520003039B1627F1C3A78A2F130010A29EED34A
:1005300030860FF6BC20397800F078FD08B117F846
:10054000010B8DF83A009DF83A00682802BF39780F
:100550006829622005D06C2804BF38786C2803D144
:1005600071208DF83A007F1C11A8B0603978B1F184
:10057000250023D02038022840F2B980133800F03B
:10058000E1800B3800F07781401E00F02081401E92
:10059000022840F2AC80001F00F01981401F7BD080
:1005A000401E00F0CF80401E22D0C01E0BD0801E07
:1005B00000F0C880C01E00F0C58064E1F068411CF6
:1005C000F160252169E12868011D29600068B26A8F
:1005D0007060002A02D500F035FD07E0002100F030
:1005E0004DFD00281ABF7168401AB06A306156E1AB
:1005F0002868011D296000210068CDE900014FF045
:100600003C0E11A87060DDE9000111B908B9B26AA9
:10061000CAB10206120FA0EB02123032AEF1010392
:10062000D2B29E463A2AA8BF2732000903F8082012
:1006300040EA0170090908BF002804D0726811ABB4
:1006400073449A42E5D311A971447160CEF13C0024
:10065000B16A3061884207DA081AB0614FF6EF716B
:10066000308E084030861AE1002940F1188196F852
:10067000301001F01401102940F01181F16AF26884
:10068000891AB269891AA1EB000EBEF1010FC0F2FE
:100690000681C6F818E002E19DF83A00622818D0F9
:1006A000682806D06A280BD06C2819D0712807D08A
:1006B00016E02868011D29600068716A0180EEE07B
:1006C0002A68101D28601268706AC117C2E900010B
:1006D000E5E02868011D29600068716A0170DEE0AC
:1006E0002868011D29600068716A0160D7E02868E8
:1006F000C01D20F00700286000F108022A60D0E940
:100700000023CDE90023002B04D5F068421CF260E1
:100710002D220DE0308E820704D5F068421CF26075
:100720002B2205E0C00705D5F068421CF2602022AC
:1007300000F80820F06811AA8018706000A800F086
:10074000E3F9ACE09DF83A006C2808BF2A6811D0A4
:10075000712808BF2A6802D02A686A280AD1D21DE7
:1007600022F007022A60144604F108022A60D4E944
:10077000002303E0131D2B6000231268CDE9002342
:10078000682808BF92B207D0622808BFD2B203D04F
:10079000742818BF7A2802D10023CDE9002396F8E7
:1007A000300000075FD5DDE90023002B08BF002AD9
:1007B00059D041F02000782855D1F068302200F857
:1007C0000820401C421CF26000F808104BE09DF825
:1007D0003A0062280CD0682810D06A281AD06C28F9
:1007E00023D0712816D074281FD07A280CD01CE092
:1007F0002868021D2A6090F900201AE02868021D6E
:100800002A60B0F9002014E02868021D2A60002345
:1008100002680FE02868C01D20F00700286000F182
:1008200008022A60D0E9002304E02868021D2A603B
:100830000268D317CDE90023002B04DAF068421CCC
:10084000F2602D220DE0308E820704D5F068421C44
:10085000F2602B2205E0C00705D5F068421CF2606B
:10086000202200F80820F06811AA8018706000A803
:1008700000F0C0F813E0F068411CF16029680A1D1F
:100880002A60096809E0F068421CF260252200F83D
:10089000082021B1F068421CF26000F80810F06AEC
:1008A000F168401AB169401A3169401AF169401A79
:1008B0007169401A316AA0EB010996F830007F1C7B
:1008C000400710D420208DF84000002409E00123C7
:1008D00010AA00A9504600F073FB002840F0858064
:1008E000641C4C45F3DBF4680DF1440B0AE01BF883
:1008F000011B0298D0470290002876D0706A401CF5
:100900007062641E002CF2D130208DF840004FF050
:10091000000BB46909E0012310AA00A9504600F0B9
:100920004FFB002861D10BF1010BA345F3DB3469C8
:10093000D6F804B00AE01BF8011B0298D0470290D9
:10094000002852D0706A401C7062641E002CF2D1E4
:1009500030208DF840004FF0000BF46909E00123CE
:1009600010AA00A9504600F02BFB00283DD10BF146
:10097000010BA345F3DB30697168746900EB010B6F
:1009800009E01BF8011B0298D047029068B3706A17
:10099000401C7062641E002CF3D130208DF84000A2
:1009A0004FF0000B346A08E0012310AA00A950465A
:1009B00000F006FBC8B90BF1010BA345F4DB96F878
:1009C000300040077FF540AD20208DF84000002426
:1009D00000E0641C4C45BFF637AD012310AA00A906
:1009E000504600F0EDFA0028F3D04FF0FF3021B070
:1009F000BDE8F08F2DE9FA47064682B035690A4610
:100A00006F2A08BF082705D041F02000782814BFBE
:100A10000A271027D6E900013C2480468946642A2B
:100A200018BF692A05D1002903DAD8F1000869EB5B
:100A30004909B9F1000F08BFB8F1000F0CD1306BB4
:100A400050B9082F3BD196F83800000737D5302031
:100A50003B2485F83B0032E0CDE90089FB17404696
:100A600049463A4600F036FBB846A8FB0023DDE9CC
:100A70000089A8EB02023032A4F1010AD2B2544636
:100A80003A2A03DB9DF80830513B9A180AF80520F2
:100A900080465FEA010908BFB8F1000F03D0F06893
:100AA00061198842D8D3082F09D196F83800000779
:100AB00005D5605D302802D0641E30206055C4F139
:100AC0003C00B0616119F160316B884207DA081AA5
:100AD00030624FF6EF71308F0840308710E0002908
:100AE0000ED596F8381001F01401102908D1716B59
:100AF0007269891A326A891A081A0128A8BF3062F5
:100B000004B0BDE8F08700002DE9F34F8BB0D0E9C9
:100B10000089006B01AF002802D50B98062106E082
:100B200004BF41F02000672802D10B980121016326
:100B30000B984168C1F30A5040F2FF72904220D1F5
:100B4000080302BF0B98006800280AD10B98032104
:100B500081619DF8300061381A2858D30FF2A44102
:100B600009E00B98032181619DF8300061381A2853
:100B70004AD30FF288410B98C068032200F022FB91
:100B800001E1012807DA0B9800F057FB012802DB8E
:100B900000230026EEE00B9A526840F2FE3161F32A
:100BA0001E520B994A6040F2FE31461A40464946B1
:100BB0000022002300F062FB38BF89F0004936B202
:100BC00047F2975070434A49DFF828B190FBF1F69D
:100BD00036B2C6F107079246012F1BDBF80707D58F
:100BE00052465B464046494600F060FB80468946D7
:100BF0007F105046594652465B4600F057FB8246EE
:100C00008B46002FEAD126E00FF2EC31B3E70FF26A
:100C1000F031B0E77F420024374D12E0F80707D5E6
:100C200052465B462046294600F040FB04460D46EE
:100C30007F105046594652465B4600F037FB8246CD
:100C40008B46002FEAD14046494622462B4600F00B
:100C5000FFFB804689469DF8300040F02005662D58
:100C60000CBF06F10A0006200B99096B4718142FD8
:100C7000A8BF132730208DF804000DF10504DFF81C
:100C80007CB0012F3CDB4046494600F01BFD01468D
:100C900004F1080204234FF00A0CB1FBFCFC0CEB3E
:100CA0008C04A1EB4401303102F8011D0A21BCFB88
:100CB000F1FE0EEB8E04ACEB44043034714602F8C6
:100CC000014D5B1EE7D1083F02F10804012FD8DB7C
:100CD00000F018FD02460B464046494600F020FD54
:100CE00000225B4600F0E2FA80468946CBE700BF6F
:100CF000A0860100000024400000F03F84D7974107
:100D00000DF10500201A0DF1050702E0401E761EC8
:100D10007F1C39783029F9D0662D02D136B2711C8A
:100D200003E0652D0CBF012100210B9A126B8B187B
:100D30001BB29842B8BF03461BB219001AD48142B5
:100D400004DAC85D3528A8BF392000DA3020CA1976
:100D5000521E00E05B1E12F80159491E8542F9D06F
:100D6000392802D1C85D401CC855002902D57F1E14
:100D70005B1C761C36B29DF830100B9800961BB2A7
:100D80003A4600F003F80DB0BDE8F08F2DE9F047CA
:100D900086B006468A4690461D4600F09EFD406A93
:100DA000376B90F80090012D02DA01250FF25828D8
:100DB0004AF02000BDF93840662808BF641C13D0F3
:100DC000672840F0878014F1040F72DBBC4270DAB0
:100DD00096F83800641C000702D4BD42B8BF2F4605
:100DE00024B23F1B48BF0027F068B16924B2012C30
:100DF00021DA30234A1C0B54012F03DA96F83810FD
:100E0000090702D502F80090521CB261E742B8BF50
:100E10007C4224B26142E7197162AF42B8BF3D46DD
:100E20002DB2F5612A46B3694146181800F0CAF997
:100E3000781BB062ADE00818A54216DA2A46414692
:100E400000F0C0F9B1696918B161601B7062012FCF
:100E500003DA96F83800000705D5F06801F800902D
:100E6000F069401CF061B76293E02246414600F011
:100E7000A9F9B06920182D1B012F03DA96F8381054
:100E8000090703D5F16800F80190401C2DB2B0614C
:100E9000AF42B8BF3D46F3682DB22A4604EB0801C5
:100EA000C01800F08FF9B0692818B061781B706223
:100EB0006FE0BD4204DA96F83810090758BF2F4694
:100EC0007F1E48BF0027BAF1670F0CBF4FF0650ABD
:100ED0004FF0450AB169F06818F8013B0B544A1C01
:100EE000012F05DA96F83810090758BFB26115D5F9
:100EF00002F80090531CB361012F0FDB6D1E2DB261
:100F0000AF42B8BF3D462DB22A464146181800F000
:100F100059F9B0692818B061781B7062B069F1683E
:100F200000EB0108200008F801AB03D42B2008F8DF
:100F3000010B03E02D2108F8011B6442002502AFDC
:100F400008E00A2200A800F0E1FC019807F8010B74
:100F50006D1C009C21B20129F3DA022D06DA4AF059
:100F60002000652804BF302008F8010B4DB930205F
:100F700008F8010B07E06D1E02A8285C303008F865
:100F8000010B012DF7DAB069F1684018A8EB0000F9
:100F9000F06196F8380000F0140010280DD1706947
:100FA000B1690818716A0818F1690818B16A081857
:100FB000716B8842BCBF081A306206B0BDE8F0878A
:100FC000F8B504460D4616461F46002004E0E86AC0
:100FD000401CE8627F1E002047B116F8011BA8687C
:100FE000A047A8600028F2D14FF0FF30F2BD00000A
:100FF000686A6C747A4C00006E616E004E414E005F
:10100000696E6600494E4600300050F8041B61B11D
:1010100050F8042BD30744BFA9F101039A18002309
:1010200042F8043B091FFAD1EFE770470278C9B2D2
:101030008A421AB11CBF10F8012FF9E718BF00202F
:10104000704701FE00F10103810704D010F8011B75
:1010500089B18107FAD10268B2F10131914311F0EF
:10106000803F04BF50F8042FF6E710F8011B11B1C0
:1010700010F8011BFBE7C01A7047FE01C9B28307D5
:1010800006D0521E22D310F8013B9942F7D11FE03F
:10109000083A13D302F1040241EA012141EA014175
:1010A00050F8043B121F21BF4B40A3F1013C2CEA36
:1010B000030C1CF0803FF3D0C9B2001F083210F8B7
:1010C000013B521E28BF91EA030FF8D818BF012038
:1010D000401E70471B4213D1094236D12AB18446C3
:1010E000B0FBF2F002FB10C2704700F017BCFCD35B
:1010F0000022002370470B000200002100207047EF
:10110000904271EB030CF6D370B5B1FA81F4B3FAE7
:1011100083F52C1BA340C4F1200532FA05F63343B6
:10112000A2405FF00046E64002E05B085FEA320260
:10113000841A71EB030524BF204629467641F4D377
:1011400002000B003000002170BD012ACFD970B51C
:10115000140C20D0B1FA81F4B2FA82F5C4F1200463
:101160006419B4F12006D6D3B2405FF00044F440D5
:10117000002502E052085FEA3303C61A71EB020E43
:1011800024BF3046714664416D41F3D302000B0029
:101190002000290070BD0C46B1FBF2F102FB1145A5
:1011A0002D0445EA1045B5FBF2F402FB145580B25C
:1011B00040EA0545B5FBF2F002FB105240EA04405C
:1011C00070BD000062B38B0708D0521E11F8013BBE
:1011D00000F8013B00F024808B07F6D1830740F034
:1011E000208000BF103A07D330B4B1E83810103A6D
:1011F000A0E83810F9D230BC530724BFB1E808107A
:10120000A0E8081044BF51F8043B40F8043BD20763
:1012100024BF31F8022B20F8022B44BF0B78037057
:101220007047083A07D3B1E80810083A40F8043B81
:1012300040F804CBF7D25307E4E730B4436803F037
:10124000004201211B031B0B436004BF0368002BFA
:1012500008D10DE00368DD0F45EA440444605B00FB
:101260000360491E4468E302F4D523031B0B43606B
:1012700043681A434260084630BC70474FF4001C74
:101280001CEB410F94BF1CEB430F09E041EA030C38
:1012900050EA4C0C52EA0C0C03D2994208BF90421F
:1012A000704714BF8B42824270470000B0B581EA9C
:1012B000030C0CF0004C40F2FF7515EA11541DBFF1
:1012C00015EA1357AC42AF4239E0E41923EA45531B
:1012D00043F48013C90241F0004141EA505EC70265
:1012E0001100A7FB020200284FF00000EEFB0120D6
:1012F0004FF00001E3FB072118BF42F00102401844
:1013000000214941E3FB0E01A4F580640F0302D2E2
:1013100052004041494154F101046CDD470872F12B
:10132000004250F1000051EB0451A1F580115CBF67
:1013300041EA0C01B0BD4CEA05510020B0BD05EA00
:101340001357AC4214BFAF4241E050EA410E1CBFFC
:1013500052EA430E02E061460020B0BD24423C4404
:101360001BD15FEA070EF6D0090302BF0146002039
:10137000AEF1140EB1FA81F7AEEB070401FA07FEE5
:101380000C37C7F1200100FA07F7C8404EEA000EFB
:1013900023EA455343F48013A2E733F00043B3FA42
:1013A00083F704BFB2FA82FE77440B3FE41BB7F128
:1013B000200E2FBF02FA0EF3BB40C7F1200E22FA17
:1013C0000EFE38BF43EA0E03BA40641C82E750EABF
:1013D000410E14BF52EA430E6FF000014FF40017A4
:1013E00017EB430F8ABF194617EB410FB5E74CEADD
:1013F00005510020B0BDD4F10104B4F120070FDA8B
:10140000C4F12007520828BF42F0010210FA07F584
:1014100001FA07F7E1BF2A43E0403843E1400FE01B
:10142000352C98DCC7F1200452EA400220FA07F27A
:1014300018BF42F0010231FA07F0A1400A4300212F
:1014400072F1004250F1000051EB0C01B0BD000000
:10145000F0B540F2FF7581EA030C0CF0004C15EA80
:1014600011541DBF15EA1357AC42AF42E5E0BC4131
:10147000C1F31301C3F31303801A994143F480139A
:1014800004D2641E4000494180185941C90241EA12
:101490005051B1FBF3F603FB1611A2FB0675D7EB17
:1014A000C020A94102D2761E80185941C90241EAE2
:1014B0005051B1FBF3FE03FB1E11A2FB0E75D7EBDF
:1014C000C020A94103D2AEF1010E80185941890212
:1014D00041EA9051760546EA8E2EB1FBF3F603FB06
:1014E0001611A2FB0675D7EB8020A94102D2761E09
:1014F00080185941C90241EA50514EEA060EB1FB2B
:10150000F3F603FB1611A2FB0675D7EBC020A94129
:1015100002D2761E80185941C90241EA5051B1FBEE
:10152000F3F703FB1711A2FB0735D3EBC020A9414A
:1015300067F100070CBF004247F0010766F3D527AB
:101540004FEA1E31B80814F5806412DDBD0775F14D
:10155000004250EB0E5051EB045111F5801F5CBF5F
:1015600041EA0C01F0BD4CF07F6141F0E041002008
:10157000F0BDBD076D0840EA0E5041F48011D4F172
:101580000104B4F120060ADAC4F120060200E040AA
:1015900001FA06F3E1401843B24015430EE0342C43
:1015A00013DCC6F1200445EA40056D0820FA06F276
:1015B000154321FA06F0A1400D43002175F10042C8
:1015C00050F1000051EB0C01F0BD00205FEA0C016E
:1015D000F0BDCFB992185B41B3FA83F704BFB2FAFA
:1015E00082F6BF190B3FB7F120062FBF02FA06F3B0
:1015F000BB40C7F1200622FA06F638BF3343BA4093
:101600001CB1E419641E33E77F4231F00041B1FAA6
:1016100081F404BFB0FA80F6A4190B3CB4F12006A3
:101620002FBF00FA06F1A140C4F1200620FA06F609
:1016300038BF3143A0403C1B1AE7AC421ABF05EA51
:101640001357AF4212E050EA41061CBF52EA43066C
:10165000BFE750EA4107304661461CBF41EA0551E9
:10166000F0BD52EA430C08BFC143F0BD00204FF467
:10167000001616EB410F98BF16EB430F08BF16EB91
:10168000410F24BFC14305E016EB430F0CBF614679
:101690004CEA0551F0BD0000F446400D40EAC1207F
:1016A000490006D200F014F8004248BF6FF0004035
:1016B000604700F00DF84FF0004188428CBF0846AB
:1016C00040426047400D40EAC120490080F00D8053
:1016D00040F00040490DA1F58061491C05D4D1F1CD
:1016E0001F0154BFC840C01770474FF0000070473B
:1016F000010040F10980F446404200F005F851F045
:1017000000416047010000BF09D0B0FA80F1884075
:10171000C91CC1F58461090501EBD0214005704762
:1017200070B44FF0004591EA030F44BF6B4000F0E6
:1017300001B900BF841A71EB030604D26E40001B8E
:10174000B141121973414FF4001C1CEB410F34BF1F
:101750007CEB430684E00C0DA4EB1356362E7DDCA7
:10176000012E43DC45EAC32343EA525312BFD2029F
:1017700092025B08240545EAC12141EA5051D2EBAF
:10178000C020994125D407D1B0FA80F610FA06F1AD
:1017900064D00020203608E0B1FA81F6B140C6F1ED
:1017A000200220FA02F21143B0404FEAF474B4EB85
:1017B000465434F001064FEA74040AD8D6F50016F0
:1017C000760D04F00044F04061FA06F25040F1401A
:1017D0004840C00A40EA415021F0004128BF5FEA7A
:1017E000500550F1000044EBD12137E045EAC32316
:1017F000DB0A45EAC121C90AB6F120050EDD42EA3D
:101800000242120CC5F1200603FA06F6EB4042EA4A
:1018100006056D42984161F100010DE062FA06F59E
:10182000F240554063FA06FC82EA0C02F3405A404B
:101830006D42904161EB030111F4801F05D1641EDC
:10184000620502D06D004041494121F480114308F6
:1018500075F1004350F1000041EB045170BC70473A
:101860001CEB410F15D223F0004352EA43060BD084
:101870004FEA4C0CBCEB410F04D80C0D661E342E05
:10188000B7DDEBE7801A994150EA410608BF002115
:10189000E4E708BF1CEB430F28BF6FF00001DDE752
:1018A00080B5134800F0B0F80FF2480101604160C4
:1018B0008160C1600161416181610FF23C0242625D
:1018C0008162C162016341630FF2300282630FF2F1
:1018D0003402C2630164416401BD10B5044800F0E4
:1018E00093F80446206808B9FFF7DAFF204610BDD8
:1018F000A441FF1F000000002E00000066616C7311
:1019000065000000747275650000000091FBF2F341
:1019100003FB1211C0E9003170470000704700005E
:1019200070B44FF0004591EA030C44BF6B40FFF7E1
:1019300001BF00BF841A71EB030603D2001BB14143
:10194000121973414FF4001C1CEB410F34BF7CEBA8
:10195000430443E00C0DA4EB1356352E50DC45EA4E
:10196000C323DB0A45EAC121C912B6F120050DDD0A
:1019700063FA05F6EB4086EA0305124218BF45F00C
:101980000105C01851F100010CD213E062FA06F50E
:10199000F2405540F3415A40B340F3405A4080185A
:1019A000594107D349085FEA30005FEA350528BF8F
:1019B00045F0010501F58011420875F1004250F132
:1019C000000041EB045170BC4FF4001C1CEB410FB4
:1019D00038BF70470020090D090570471CEB410F07
:1019E00010D252EA43060BD0BCEB410F05D80C0DC8
:1019F000AB43661E342EB5DD02E0AB43801859417F
:101A000070BC704770BC7047704700000100000058
:101A1000000005000F00190028003C0050000000E5
:101A200023002D00370041004600500064000000F4
:101A30000A001E00320046005A006E0082000000BC
:101A40000606050302010006050503020100050460
:101A5000030201010003030202010100020201016D
:101A60000100000101010100000001000000000070
:101A70000000000000000000000000000000000066
:101A80000000000000000000000000000000000056
:101A900000004E6F6E4D61736B61626C65000000FB
:101AA00000486172644661756C74000000000000BB
:101AB0004D656D4D616E6167656D656E74000042C8
:101AC00075734661756C740000000000000055736A
:101AD0006167654661756C740000000000000000DD
:101AE00000000000000000000000000000000000F6
:101AF00000000000000000000000000000000000E6
:101B000000000000000000000000000000000000D5
:101B1000000000000000000000535643616C6C00A0
:101B2000000000000000000044656275674D6F6EA4
:101B300069746F72000000000000000000000000E7
:101B400000000000000050656E6453560000000065
:101B500000000000005379735469636B00000000BB
:101B600000000000444D4130000000000000000073
:101B7000000000444D413100000000000000000062
:101B80000000444D41320000000000000000000051
:101B900000444D4133000000000000000000000040
:101BA000444D4134000000000000000000000044EB
:101BB0004D41350000000000000000000000444DD1
:101BC00041360000000000000000000000444D41CC
:101BD000370000000000000000000000444D4138C4
:101BE0000000000000000000000000444D413900EA
:101BF00000000000000000000000444D41313000B2
:101C0000000000000000000000444D4131310000A0
:101C10000000000000000000444D4131320000008F
:101C200000000000000000444D413133000000007E
:101C3000000000000000444D41313400000000006D
:101C40000000000000444D4131350000000000005C
:101C500000000000444D415F4572726F7200000049
:101C60000000004D434D0000000000000000000097
:101C700000004654464C0000000000000000000038
:101C800000526561645F436F6C6C6973696F6E00CD
:101C90004C56445F4C565700000000000000004CBA
:101CA0004C570000000000000000000000005761D9
:101CB000746368646F6700000000000000524E47C4
:101CC0000000000000000000000000004932433026
:101CD0000000000000000000000000493243310015
:101CE00000000000000000000000535049300000D8
:101CF00000000000000000000053504931000000C7
:101D000000000000000000005350493200000000B5
:101D10000000000000000043414E305F4F525F4D15
:101D2000425F6275660043414E305F4275735F4F9C
:101D3000666600000043414E305F4572726F72006C
:101D40000000000043414E305F54785F5761726E6F
:101D5000696E6743414E305F52785F5761726E69BA
:101D60006E6743414E305F57616B655F5570000091
:101D700000526573657276656435310000000000BD
:101D80005265736572766564353200000000004369
:101D9000414E315F4F525F4D425F62756600434175
:101DA0004E315F4275735F4F666600000043414EDF
:101DB000315F4572726F72000000000043414E3186
:101DC0005F54785F5761726E696E6743414E315F51
:101DD00052785F5761726E696E6743414E315F574B
:101DE000616B655F557000000052657365727665C2
:101DF00064353900000000005265736572766564D1
:101E00003630000000000055415254305F52585F98
:101E100054580000000055415254305F4552520062
:101E2000000000000055415254315F52585F545831
:101E30000000000055415254315F455252000000ED
:101E400000000055415254325F52585F5458000010
:101E5000000055415254325F4552520000000000CC
:101E60000055415254335F52585F545800000000EF
:101E700055415254335F4552520000000000005556
:101E8000415254345F52585F54580000000055418D
:101E90005254345F45525200000000000055415238
:101EA00054355F52585F5458000000005541525459
:101EB000355F4552520000000000004144433000AD
:101EC0000000000000000000000041444331000019
:101ED000000000000000000000434D5030000000F2
:101EE0000000000000000000434D503100000000E1
:101EF00000000000000000434D50320000000000D0
:101F000000000000000046544D30000000000000BA
:101F1000000000000046544D3100000000000000A9
:101F20000000000046544D32000000000000000098
:101F3000000000434D5400000000000000000000BD
:101F400000005254430000000000000000000000A8
:101F500000526573657276656438330000000000D6
:101F60005049543000000000000000000000005004
:101F700049543100000000000000000000005049FA
:101F800054320000000000000000000000504954DE
:101F90003300000000000000000000005044423008
:101FA0000000000000000000000000555342300017
:101FB000000000000000000000005553424443446C
:101FC000000000000000000000454E45545F313520
:101FD00038385F54696D6572454E45545F5472617F
:101FE0006E736D69740000454E45545F52656365BC
:101FF000697665000000454E45545F4572726F7208
:1020000000000000004932533000000000000000D2
:10201000000000005344484300000000000000009E
:1020200000000044414330000000000000000000B8
:1020300000004441433100000000000000000000A7
:102040000054534930000000000000000000000070
:102050004D43470000000000000000000000004C5D
:102060005054696D65720000000000000000526568
:1020700073657276656431303200000000504F5253
:10208000544100000000000000000000504F525476
:102090004200000000000000000000504F52544376
:1020A00000000000000000000000504F52544400A7
:1020B000000000000000000000504F525445000096
:1020C00000000000000000005265736572766564D0
:1020D00031303800000000526573657276656431F6
:1020E00030390000000052657365727665643131E5
:1020F00030000000005265736572766564313131DD
:1021000000000000526573657276656431313200FB
:1021100000000052657365727665643131330000EA
:1021200000005265736572766564313134000000D9
:1021300000526573657276656431313500000000C8
:102140005265736572766564313136000000005265
:102150006573657276656431313700000000526541
:102160007365727665643131380000000052657322
:1021700065727665643131390000000000800340EB
:102180000090034000800B4000900B4000F00F4097
:1021900040F00F4080F00F40C0F00F4000F10F40C2
:1021A00066000A1D32000701640007106E00040675
:1021B000780004088200040A8C00040C9600040EC7
:1021C000A0000410AA000412B4000414BE000416F7
:1021D000C8000418D200041ADC00041CE100041D2D
:1021E000E600041EEB00041FF4000317FA000318B6
:1021F000130101062C01021400010908009004409B
:1022000000A0044000B0044000C0044000D00440DE
:1022100000A0064000B0064000C0064000D00640C6
:1022200000A00E4000B00E40220478006A6E6B6C75
:10223000676D4E4F86354337010100000DC1110017
:1022400009030CD012401520173F185019031A78B3
:102250003200A00A63E0ACFF650C660067002950FD
:102260002C782A007E0C7F16802A814E8261836F33
:10227000847B8586868E879788A489AF8AC58BD70D
:102280008CE88D204A00491347084B144C1746052B
:1022900022992303A6049B009C1FAB069E119F025C
:1022A0003200000000002842000000000000000092
:1022B0000000000000000000000000000500000019
:1022C00000000000020401013841FF1F8841FF1F88
:1022D0003841FF1F3841FF1F3841FF1F050DFF1F09
:1022E000EC0CFF1F000000000000000000000000D8
:1022F00000000000000000000000000000000000DE
:102300000000000038B52DED048BB0EE409AF0EEE1
:10231000609AB0EE418AF0EE618A51EC190B01220D
:10232000DFF8303800F036FC05D89FEDD91BB0EE51
:10233000419AF0EE619A51EC190B00220023FEF74E
:102340009DFF05D29FEDD41BB0EE419AF0EE619A4D
:1023500051EC180B0122DFF8003800F01BFC05D807
:102360009FEDCF1BB0EE418AF0EE618A51EC180B65
:1023700000220023FEF782FF05D29FEDC71BB0EEBF
:10238000418AF0EE618A0020DFF8CC1753EC182B5D
:10239000FFF7C6F941EC180BDFF8C007B0F90000F1
:1023A000FFF7A6F902000B0051EC190BFEF766FFD0
:1023B0000BD2DFF8AC0700210170DFF8A80700227C
:1023C000DFF8A437C0E900233BE1DFF89007B0F95C
:1023D0000200FFF78DF902000B0051EC190BFEF71C
:1023E0004DFF25D2DFF8780700210170DFF86C0778
:1023F000B0F90200FFF77CF953EC192BFFF790F9C5
:1024000004000D00DFF85407B0F90200DFF84C17A4
:10241000B1F90010401AFFF76BF902000B00200021
:102420002900FFF715F8DFF83C27C2E9000108E1B1
:10243000DFF82807B0F90400FFF75AF902000B0093
:1024400051EC190BFEF71AFF25D2DFF81407012112
:102450000170DFF80807B0F90400FFF749F953EC01
:10246000192BFFF75DF904000D00DFF8F006B0F955
:102470000400DFF8E816B1F90210401AFFF738F946
:1024800002000B0020002900FEF7E2FFDFF8D4264F
:10249000C2E90001D5E0DFF8C406B0F90600FFF795
:1024A00027F902000B0051EC190BFEF7E7FE25D2CD
:1024B000DFF8AC0602210170DFF8A006B0F90600D3
:1024C000FFF716F953EC192BFFF72AF904000D005A
:1024D000DFF88806B0F90600DFF88016B1F90410BD
:1024E000401AFFF705F902000B0020002900FEF753
:1024F000AFFFDFF87026C2E90001A2E0DFF85C065A
:10250000B0F90800FFF7F4F802000B0051EC190BCA
:10251000FEF7B4FE25D2DFF8480603210170DFF88C
:102520003C06B0F90800FFF7E3F853EC192BFFF76E
:10253000F7F804000D00DFF82406B0F90800DFF812
:102540001C16B1F90610401AFFF7D2F802000B0072
:1025500020002900FEF77CFFDFF80826C2E9000111
:102560006FE0DFF8F805B0F90A00FFF7C1F80200E4
:102570000B0051EC190BFEF781FE25D2DFF8E005C8
:1025800004210170DFF8D405B0F90A00FFF7B0F8B4
:1025900053EC192BFFF7C4F804000D00DFF8BC055D
:1025A000B0F90A00DFF8B415B1F90810401AFFF7C6
:1025B0009FF802000B0020002900FEF749FFDFF81A
:1025C000A425C2E900013CE0DFF89005B0F90C0059
:1025D000FFF78EF802000B0051EC190BFEF74EFED0
:1025E00025D2DFF87C0505210170DFF87005B0F910
:1025F0000C00FFF77DF853EC192BFFF791F804005E
:102600000D00DFF85805B0F90C00DFF85015B1F9EE
:102610000A10401AFFF76CF802000B002000290096
:10262000FEF716FFDFF83C25C2E9000109E0DFF8FC
:10263000300505210170DFF82C0500220023C0E9D8
:1026400000230020DFF82015DFF8182553681268F2
:10265000FFF766F8DFF80C25C2E90201DFF80C0588
:10266000B0F90000FFF744F802000B0051EC180B22
:10267000FEF704FE18D2DFF8F80400210170DFF83D
:10268000F4040022DFF8E034C0E900233BE100BF9E
:1026900000000000000054400000000000000000A6
:1026A0000000000000005940DFF8C004B0F902004B
:1026B000FFF71EF802000B0051EC180BFEF7DEFDD1
:1026C00025D2DFF8AC0400210170DFF8A004B0F9D6
:1026D0000200FFF70DF853EC182BFFF721F8040068
:1026E0000D00DFF88804B0F90200DFF88014B1F9BA
:1026F0000010401AFEF7FCFF02000B00200029002A
:10270000FEF7A6FEDFF86C24C2E90001FBE0DFF86B
:102710005C04B0F90400FEF7EBFF02000B0051EC83
:10272000180BFEF7ABFD25D2DFF844040121017040
:10273000DFF83804B0F90400FEF7DAFF53EC182B89
:10274000FEF7EEFF04000D00DFF82004B0F90400EE
:10275000DFF81814B1F90210401AFEF7C9FF0200A1
:102760000B0020002900FEF773FEDFF80824C2E901
:102770000001C8E0DFF8F403B0F90600FEF7B8FF87
:1027800002000B0051EC180BFEF778FD25D2DFF8A4
:10279000E00302210170DFF8D403B0F90600FEF770
:1027A000A7FF53EC182BFEF7BBFF04000D00DFF86A
:1027B000BC03B0F90600DFF8B413B1F90410401AF5
:1027C000FEF796FF02000B0020002900FEF740FEF6
:1027D000DFF8A023C2E9000195E0DFF89003B0F92B
:1027E0000800FEF785FF02000B0051EC180BFEF706
:1027F00045FD25D2DFF8780303210170DFF86C0373
:10280000B0F90800FEF774FF53EC182BFEF788FFB1
:1028100004000D00DFF85403B0F90800DFF84C1392
:10282000B1F90610401AFEF763FF02000B0020000A
:102830002900FEF70DFEDFF83C23C2E9000162E04B
:10284000DFF82803B0F90A00FEF752FF02000B0080
:1028500051EC180BFEF712FD20D2C548042101707F
:10286000C248B0F90A00FEF743FF53EC182BFEF7FD
:1028700057FF04000D00BD48B0F90A00BB49B1F98B
:102880000810401AFEF734FF02000B002000290058
:10289000FEF7DEFDB74AC2E9000134E0B348B0F903
:1028A0000C00FEF725FF02000B0051EC180BFEF7A1
:1028B000E5FC20D2AE4805210170AC48B0F90C000F
:1028C000FEF716FF53EC182BFEF72AFF04000D004D
:1028D000A648B0F90C00A549B1F90A10401AFEF754
:1028E00007FF02000B0020002900FEF7B1FDA14AFE
:1028F000C2E9000107E09E48052101709D480022C1
:102900000023C0E90023002097499A4A53681268BF
:10291000FEF706FF974AC2E90201914890F90000CC
:10292000072110FB01F0924991F9001040FA81F063
:1029300091494056914908808A48416800688D4A0B
:1029400053681268FEF79AFC06D28D48854991EDCE
:10295000000B80ED000B05E08948864991ED000BE6
:1029600080ED000B7E4890F90000072110FB01F07C
:102970007F4991F9001040FA81F07F49401890F9A1
:1029800007007E4948807748C1688068794A536863
:102990001268FEF773FC06D27948724991ED020B7A
:1029A00080ED020B05E07648724991ED000B80ED59
:1029B000020B6B4890F90000072110FB01F06C49F5
:1029C00091F9001040FA81F06B49401890F901002C
:1029D0006A498880634841680068664AD36892689B
:1029E000FEF74CFC06D266485E4991ED000B80ED87
:1029F000040B05E062485F4991ED020B80ED040B8A
:102A0000574890F90000072110FB01F0584991F94F
:102A1000001040FA81F05849401890F908005749D1
:102A2000C8805048C1688068524AD3689268FEF7EF
:102A300025FC06D252484B4991ED020B80ED060B66
:102A400005E04F484B4991ED020B80ED060B4B48DA
:102A5000B0F900004B4931F8100048490880474858
:102A6000B0F90200474931F8100044494880434812
:102A7000B0F90400434931F81000404988803F48CC
:102A8000B0F906003F4931F810003C49C8803B4886
:102A9000B0F90000FEF72CFE394A53681268FEF7C1
:102AA00005FC04000D003548B0F90200FEF720FED9
:102AB000334AD3689268FEF7F9FB22002B00FEF739
:102AC0002FFF04000D002D48B0F90400FEF710FEA2
:102AD0002B4A53691269FEF7E9FB22002B00FEF72F
:102AE0001FFF04000D002548B0F90600FEF700FEA8
:102AF000234AD3699269FEF7D9FB22002B00FEF727
:102B00000FFF214AC2E900011D48D0E900231C48FB
:102B1000C1688068FEF704FF194A53691269FEF71D
:102B2000FFFE174AD3699269FEF7FAFE174AC2E917
:102B30000001154841680068144A53681268FEF79E
:102B400087FC134AC2E90001114890ED000BBDEC6F
:102B5000048B31BD00005440000059401404FF1F95
:102B60009741FF1F080FFF1F0000F03F2404FF1FC5
:102B70009841FF1F180FFF1F4404FF1FCC14FF1FB5
:102B8000280FFF1F3404FF1F500FFF1F480FFF1FA8
:102B9000000FFF1F4FF4001C1CEB410F94BF1CEBF8
:102BA000430F09E041EA030C50EA4C0C52EA0C0CCA
:102BB00003D28B4208BF8242704714BF99429042B1
:102BC0007047000080B55FF4E131042000F020FB85
:102BD0000FF21151452000F0BCFC042000F052FC23
:102BE000042000F079FC01BD2DE9F0418046DFF8BA
:102BF000A80580F80480DFF8A0050068642880F24A
:102C00003181DFF894050068DFF88C154018DFF893
:102C1000881509798171DFF880050068401CDFF8AC
:102C200078150860DFF8700500682928C0F2AF80C9
:102C3000DFF864050068DFF86015401810F8230C11
:102C4000FF2840F0A480DFF850050068DFF8481541
:102C5000401810F8220C552840F09980DFF838050C
:102C60000068DFF83415401810F8210CAA2840F04D
:102C70008E80DFF824050068DFF81C15401810F876
:102C8000200C102840F08380DFF80C05002180F82C
:102C90006B10DFF804050068293804002700DFF80E
:102CA000F8040068401E87420EDADFF8EC0490F862
:102CB0006B00DFF8E414791889790818DFF8D81464
:102CC00081F86B007F1CEAE7DFF8CC0490F86B001A
:102CD000DFF8C4140968DFF8C024891849798842EC
:102CE00050D100200700092F4ADA14EB8700DFF8E3
:102CF000A8144018807A5FF0807114EB8702DFF827
:102D00009834D218D27A5FF480335A4301FB002002
:102D100014EB8701DFF880248918097B4FF4807257
:102D200002FB010014EB8701DFF86C248918497B52
:102D300050FA81F0060016F1004F04D37FF00040F6
:102D4000801B050000E035002800FEF7D1FCDFF80D
:102D50004C2412EBC702C2E90001DFF8400410EB7B
:102D6000C700416800680022DFF83434FEF770FBCA
:102D7000DFF8282412EBC702C2E900017F1CB2E78A
:102D800000F05BF9DFF81004002101606DE0DFF86E
:102D900008040068072868DBDFF8FC030068DFF838
:102DA000F813401810F8010CFF285ED1DFF8E80393
:102DB0000068DFF8E413405C552856D1DFF8D803EB
:102DC0000068DFF8D41340184078AA284DD1DFF806
:102DD000C8030068DFF8C01340188078772844D112
:102DE000DFF8B403002180F86B10DFF8AC03006853
:102DF000C01F04002700DFF8A0030068401E8742C0
:102E00000EDADFF8940390F86B00DFF88C13791872
:102E100089790818DFF8801381F86B007F1CEAE7D6
:102E2000DFF8740390F86B00DFF86C130968DFF8C3
:102E300068238918497988420FD1DFF85C0300685C
:102E4000DFF8541340180179DFF84C030068DFF80D
:102E500048238018C07800F00CF9DFF83C0300210B
:102E6000016002E0CC4800210160BDE8F08110B4AF
:102E700089B24FF4807291FBF2F2C0B2C94B03F8F1
:102E80001020C0B2C74A12EB400289B24FF48073DF
:102E900091FBF3F404FB1314547010BC704770B52D
:102EA0008AB0002500AEC04890ED070ABDEEC00A0A
:102EB00010EE101A89B20020FFF7D9FFBA48B0F817
:102EC000981089B20120FFF7D2FFB74890ED450A6C
:102ED000BDEEC00A10EE101A89B20220FFF7C7FF3C
:102EE000B14890ED460ABDEEC00A10EE101A89B244
:102EF0000320FFF7BCFFAD48018A0420FFF7B7FFAE
:102F0000AA48418A0520FFF7B2FFA74890ED140AAE
:102F1000BDEEC00A10EE101A89B20620FFF7A7FF17
:102F2000A14890ED150ABDEEC00A10EE101A89B244
:102F30000720FFF79CFF9C4890ED390ABDEEC00AC0
:102F400010EE101A89B20820FFF791FF964890ED15
:102F50005E0ABDEEC00A10EE101A89B20920FFF712
:102F600086FF9348016889B20A20FFF780FF9148E5
:102F7000016889B20B20FFF77AFF8B4890ED1B0A9E
:102F8000BDEEC00A10EE101A89B20C20FFF76FFFD9
:102F9000854890ED040ABDEEC00A10EE101A89B201
:102FA0000D20FFF764FFFB203070761C6D20307021
:102FB000761C25203070761C6D1F6D352535002060
:102FC00004007D480078E4B284420AD2E4B2754835
:102FD000205C3070761CE4B27248205C4519641C99
:102FE000EFE73570761C262100A800F0B0F80AB093
:102FF00070BD80B569484168006800F0C1FA6A494F
:1030000008616648C168806800F0BAFA664988615C
:1030100001BD80B56148416B006B00F0B1FA6249B7
:10302000C1F8E4005D48C16B806B00F0A9FA5E490D
:10303000C1F8780101BD7047704780B55748416CB1
:10304000006CFEF729FB80B2002805D0022809D0C9
:1030500005D3032809D00BE0FFF7CBFF08E0FFF70B
:10306000D8FF05E0FFF7E7FF02E0FFF7E5FFFFE726
:1030700001BD38B504000D00E4B2012C12D1EDB24F
:103080000A2D0FD14D4890F90000002801D10120F0
:1030900000E0002049490870002000F0D7FA002025
:1030A00000F0FFFAE4B2012C0BD1EDB20B2D08D1E8
:1030B00043480078002801D1012000E00020404969
:1030C0000870E4B2012C0BD1EDB2062D08D13D48B9
:1030D0000078002801D1012000E000203949087063
:1030E00031BD000080B5384890F90000374951F8EB
:1030F00020000079800607D500A9042000F094F98B
:103100009DF80000FFF770FD2F4890F900002F494F
:1031100051F820000079000618D52D480078411C90
:103120002B4A1170C0B22B49415649B2264890F93A
:10313000000000F088F9264800782749097888427D
:1031400004D1214890F9000000F0C6F901BD70B526
:1031500004000D0000200600F6B2EDB2AE420CD223
:10316000F6B2305D1C4909781A4A88541A4800782A
:10317000401C19490870761CEEE7134890F90000CE
:10318000124951F82000C078000604D40E4890F986
:10319000000000F08CF970BD1C15FF1F580FFF1FB9
:1031A0000000F040F814FF1F1013FF1F8816FF1FC8
:1031B000F014FF1FF414FF1F2C0CFF1F9641FF1F7C
:1031C0009941FF1F1004FF1F2D0CFF1F140CFF1F40
:1031D0009A41FF1F8815FF1F9B41FF1F10B440B28B
:1031E0004109DFF82C23012310F01F04A34042F80B
:1031F000213010BC704710B440B24109DFF81423ED
:10320000012310F01F04A34042F8213010BC704786
:103210002DE9F84304000D0064B2002C08D0022C04
:103220002CD018D3042C4FD03BD3052C5FD071E0A9
:10323000DFF8E402006850F48060DFF8DC12086018
:103240004FF44071662000F059FA4FF44071672046
:1032500000F054FA5EE0DFF8C002006850F400604D
:10326000DFF8B41208604FF44071432000F046FAD2
:103270004FF44071442000F041FA4BE0DFF898022F
:10328000006850F48050DFF8901208604FF44071ED
:10329000632000F033FA4FF44071622000F02EFA00
:1032A00038E0DFF87402006850F40050DFF868126C
:1032B00008604FF440712A2000F020FA4FF440716A
:1032C0002B2000F01BFA25E0DFF85002006850F4D4
:1032D0008060DFF8481208604FF440714E2000F023
:1032E0000DFA4FF440714F2000F008FA12E0DFF8B9
:1032F0002C02006850F40060DFF8201208604FF4E0
:103300004071892000F0FAF94FF44071882000F0F4
:10331000F5F9FFE764B2DFF8080250F82400C0783E
:1033200010F0F30064B2DFF8F81151F82410C870FF
:1033300064B2DFF8EC0150F8240064B2DFF8E01169
:1033400051F824108978817064B2002C02D064B2E4
:10335000012C07D1DFF8CC0100684FF47A714843A3
:10336000814606E0DFF8C00100684FF47A714843F7
:1033700081462801B9FBF0F00600B6B2B6F5005F51
:1033800002DB41F6FF700600B9FBF5F0B6B2B0EB18
:1033900006100700BFB2202F03DBDC21634800F0DA
:1033A0001AFA64B25E4850F82400007810F0E00089
:1033B0008046B6B2300A10F01F0050EA080064B22E
:1033C000574951F82410087064B2554850F8240049
:1033D000467064B2524850F82400807A10F0E00041
:1033E000804664B24E4850F8240017F01F0151EA9D
:1033F0000801817264B24A4850F82400007C50F001
:10340000880064B2464951F82410087464B24448F4
:1034100050F82400C07850F00C0064B2404951F8D4
:103420002410C870BDE8F18340B23D4A52F8202014
:1034300012799206F8D540B2394A52F8202092F912
:1034400007200A70704740B2354A52F8202012799E
:103450001206F8D540B2324A52F82020D171704796
:1034600070B504000D0016003000461E002808D07C
:1034700095F9001049B2200040B2FFF7E4FF6D1C3F
:10348000F2E770BD10B5040064B2254850F824007E
:10349000C07850F0200064B2214951F82410C8705F
:1034A00064B260002D3040B2FFF798FE10BD10B539
:1034B000040064B21A4850F82400C07850F080002C
:1034C00064B2174951F82410C87064B260002D30FE
:1034D00040B2FFF783FE10BD10B5040064B210487F
:1034E00050F82400C07810F07F0064B20C4951F805
:1034F0002410C87064B20A4850F82400C0788006CE
:1035000005D464B260002D3040B2FFF774FE10BDE8
:1035100000E100E080E100E03480044028800440C5
:10352000140CFF1FE414FF1FEC14FF1F9076000023
:1035300010B504004FF4007094FBF0F101FB104152
:10354000002903D01E210B4800F045F90A48046009
:1035500010BD38B504000D000748006807498842CF
:1035600003D03021034800F036F964B2034840F834
:10357000245031BD7877000008ED00E00000FF1F07
:103580004FEAF17CBCF1E04C2CBFBCF5001F11E010
:103590005FEA4C0C34BFBCF17F5F2EE05FEA9C0C0D
:1035A0004FEA0C1C4FEA3C0CC10071F100414CEB9E
:1035B00050707047C90241EA5051C00218BF41F033
:1035C000010141F000414FEA6C50C0F1090021288F
:1035D00010D240EACC7CCCF1200C11FA0CF070F146
:1035E0000040CCF1200C21FA0CF00CF0004C40EB28
:1035F0000C0070474FEACC707047490011F5001F6E
:1036000004D84FEACC10FF30C0057047C817704788
:1036100080B5002342F210720521002000F040FA2C
:10362000002342F210720221002000F039FA002338
:1036300042F210720321002000F032FA002342F21D
:1036400010720421002000F02BFA01BD10B5040017
:1036500024B22948844201DA274C07E024B242F21E
:103660001170844202DB42F21074FFE724B2012C95
:103670000BDB24B222000421002000F0E6FA002235
:103680000321002000F0E1FA0AE0002204210020DA
:1036900000F0DBFA24B262420321002000F0D5FAE8
:1036A00010BD10B5040024B21348844201DA124C54
:1036B00007E024B242F21170844202DB42F210743D
:1036C000FFE724B2012C0BDB24B2220002210020F0
:1036D00000F0BBFA00220521002000F0B6FA0AE053
:1036E00000220221002000F0B0FA24B2624205213B
:1036F000002000F0AAFA10BDF0D8FFFF10B4294A4C
:1037000012684FF40073C0B24409A3401A43254B1A
:103710001A60C0B24211244B53F82220012310F04A
:103720001F04A340C2F8A030C0B210F01F02C0B204
:1037300043111D4C54F8233043F8221010BC70473D
:1037400010B4184A12684FF40073C0B24409A34081
:103750001A43144B1A60C0B24211134B53F8222083
:10376000012310F01F04A340C2F8A03031F4E0613F
:10377000C0B210F01F02C0B243110B4C54F82330FA
:1037800053F8222012F4E0621143C0B210F01F027D
:10379000C0B24311044C54F8233043F8221010BC3B
:1037A0007047000038800440000CFF1FDFF800F075
:1037B000390DFF1FDFF800F05D0DFF1FBFF34F8FC6
:1037C0004448006810F4E0604349084341490860F8
:1037D000BFF34F8FFEE738B504000D00002000F066
:1037E0007BFB2A0021003D4800F0CCFB002000F0CC
:1037F000AEFB4FF47A7000F0F2FBF2E738B504004C
:103800000D00210049B20420FFF71DFE200032BD4B
:1038100010B50024042000F0F9FB042000F02CFC7B
:10382000002841D1002000F057FB042000F024FCC8
:10383000012801D101200400002000F088FB284865
:1038400000F0A0FB4FF4FA7000F0C9FBE4B2012CC9
:10385000EBD1042000F010FC0028E6D1042000F099
:103860000BFC002806D1002000F071FB642000F062
:10387000B6FBF3E7042000F0FFFB012806D100208F
:1038800000F065FB322000F0AAFBF3E7154800F0DA
:1038900079FBFFF78BFF642000F0A1FB0020FFF70E
:1038A00089FFFFF78BFFC0E710BD10B50E48046815
:1038B000012000F04CFBE4B20F200C4900FB041285
:1038C000E4B221000A4800F05DFB4FF47A7000F08A
:1038D00086FBEDE70CED00E00400FA05C07800007F
:1038E000287A00003C79000004ED00E07804FF1F16
:1038F0005C78000038B504000D0064B2002C06D0DE
:10390000022C69D04CD3032C00F08280C7E0DFF892
:10391000B005006850F08070DFF8A41508606DB243
:10392000002D0BD0022D15D00ED3042D1ED017D391
:10393000062D27D020D3072D2AD02FE04FF4806109
:103940004120FFF7DBFE2AE04FF440710420FFF72F
:10395000D5FE24E04FF440710520FFF7CFFE1EE0B6
:103960004FF440710620FFF7C9FE18E04FF4407194
:103970000720FFF7C3FE12E04FF480616520FFF7D8
:10398000BDFE0CE04FF480616620FFF7B7FE06E055
:103990004FF480616720FFF7B1FE00E07FE07EE03A
:1039A000DFF81C05006850F00070DFF8141508609F
:1039B0006DB2002D02D0012D06D00BE04FF4407106
:1039C0000C20FFF79BFE06E04FF440710D20FFF73F
:1039D00095FE00E063E062E0DFF8E804006850F084
:1039E0008070DFF8E01408606DB2002D02D0012D68
:1039F00006D00BE04FF440710A20FFF77FFE06E08F
:103A00004FF440710B20FFF779FE00E047E046E0FD
:103A1000DFF8B004006850F00070DFF8A814086008
:103A20006DB2002D0BD0022D15D00ED3042D1ED05B
:103A300017D3062D27D020D3072D2AD02EE04FF400
:103A4000C0618520FFF75AFE28E04FF4C061862050
:103A5000FFF754FE22E04FF4C0618720FFF74EFECF
:103A60001CE04FF4C0618820FFF748FE16E04FF4D9
:103A7000C0618920FFF742FE10E04FF4C0618A2048
:103A8000FFF73CFE0AE04FF4C0618B20FFF736FEE3
:103A900004E04FF4C0618C20FFF730FEFFE731BD3A
:103AA0002DE9F84F04000D0016001F0064B2002C31
:103AB00011D064B2012C02D064B2022C02D16DB2DA
:103AC000022D08DB64B2032C05D040F28511DFF82B
:103AD000F803FFF780FE290049B2200040B2FFF74B
:103AE00009FFDFF8E80300684FF47A714843804625
:103AF0005FEA1840B0FBF6F08146002082461FFACC
:103B000089F959FA0AF0012802DB1AF1010AF6E7ED
:103B10005FFA8AFABAF1080F05DB4FF4D071DFF8CB
:103B2000A803FFF758FE38FA0AF0B0FBF6F081461A
:103B300064B2DFF89C031FFA89F940F8249064B25C
:103B4000002C05D0022C1AD00ED3032C23D02DE04C
:103B50001FFA89F919F1010000FB07F042F2107118
:103B6000B0FBF1F0834621E01FFA89F919F1010059
:103B700000FB07F06421B0FBF1F0834616E01FFA6A
:103B800089F919F1010000FB07F042F21071B0FB56
:103B9000F1F083460AE01FFA89F919F1010000FBF0
:103BA00007F06421B0FBF1F08346FFE76DB264B229
:103BB000DFF8200350F8240010EBC5006DB264B2AA
:103BC000DFF8101351F8241011EBC501C96831F06A
:103BD0000401C1606DB264B2DFF8F80250F824004D
:103BE00010EBC5002821C16064B2DFF8E80250F88C
:103BF00024005FFA8AFA1AF0070151F00801016007
:103C000064B2DFF8D00250F824001FFA89F9C0F836
:103C1000089064B2DFF8BC0250F824000021C164AF
:103C20006DB264B2DFF8AC0250F8240010EBC500AE
:103C30001FFA8BFBC0F810B064B2DFF8980250F89E
:103C4000240000214160BDE8F18F2DE9F04104001E
:103C50000D0016005FF0000864B2002C11D064B2B1
:103C6000012C02D064B2022C02D16DB2022D08DB0D
:103C700064B2032C05D04FF4F371DFF84C02FFF768
:103C8000AAFD64B2002C05D0022C17D00DD3032C52
:103C90001FD027E042F21170864205D34FF4F6712F
:103CA000DFF82402FFF797FD1CE0652E05D34FF4E3
:103CB000F871DFF81402FFF78EFD13E042F2117085
:103CC000864205D34FF4FA71DFF8FC01FFF783FD5C
:103CD00008E0652E05D340F2F911DFF8EC01FFF79B
:103CE0007AFDFFE764B2DFF8E80150F8240080466F
:103CF00064B2002C05D0022C16D00CD3032C1DD09E
:103D000025E018F1010000FB06F042F21071B0FB53
:103D1000F1F007001BE018F1010000FB06F0642140
:103D2000B0FBF1F0070012E018F1010000FB06F013
:103D300042F21071B0FBF1F0070008E018F1010049
:103D400000FB06F06421B0FBF1F00700FFE76DB265
:103D500064B2DFF8800150F8240010EBC500076161
:103D6000BDE8F08110B5040064B2012C07D064B244
:103D7000022C04D040F2DB215348FFF72CFD64B243
:103D80002000012802D0022811D021E04C48006810
:103D900050F000704A4908604FF4E0610C20FFF7D2
:103DA000ADFC4FF4E0610D20FFF7A8FC15E045489D
:103DB000006850F08070434908604FF4C0610A20E9
:103DC000FFF79CFC4FF4C0610B20FFF797FC04E069
:103DD00040F213313C48FFF7FEFC64B23D4850F816
:103DE0002400406D50F0040064B23A4951F82410A8
:103DF000486564B2374850F82400D0F8800050F08D
:103E0000080064B2334951F82410C1F8800064B24C
:103E1000304850F824000021C16464B22D4850F8A5
:103E200024004FF6FF71816064B22A4850F82400E4
:103E3000D0F8800050F0010064B2264951F82410F7
:103E4000C1F8800064B2234850F82400406D50F05F
:103E5000010064B21F4951F82410486564B21D483E
:103E600050F824000021416010BD38B5040064B250
:103E7000012C07D064B2022C04D04FF44C711248CC
:103E8000FFF7A9FC64B2134850F82400406805000D
:103E9000280000B232BD10B5040064B2012C07D076
:103EA00064B2022C04D040F23E310748FFF793FC85
:103EB00064B2084850F824000021416010BD0000A1
:103EC0003C80044030800440F0720000EC14FF1F7E
:103ED000D414FF1F800BFF1F10B5040064B2042C24
:103EE00007DA0122012164B22548205C00F0DCF8E9
:103EF0000EE0042004002000441E40B2002807D039
:103F00000022012164B21E48205C00F0CDF8F2E7E7
:103F100010BD38B504000D0064B2042C07DA290086
:103F2000C9B264B21648205C00F015F90EE0042016
:103F300004002000441E40B2002807D02900C9B266
:103F400064B20F48205C00F006F9F2E731BD10B50D
:103F5000040064B2042C05DA64B20948205C00F065
:103F600033F90CE0042004002000441E40B2002875
:103F700005D064B20248205C00F026F9F4E710BDD9
:103F8000380CFF1F0EB400B582B003A900910246A1
:103F900000AB0121034878440A30FCF73DFA06BC27
:103FA0005DF810FB613A000010B50400002C15D03C
:103FB000B4F1807F03D329210F48FFF70CFC0F4891
:103FC000002101600E4804600E48002101600B488A
:103FD0000521016009480068C003FBD510BD10B57C
:103FE00004002000441E002804D007480068FFF7A2
:103FF000DBFFF6E710BD00003470000010E000E0C9
:1040000014E000E018E000E0E414FF1F10B5040025
:1040100064B2082C0DDA0022002164B22148205C31
:1040200000F042F8032164B21E48205CFFF788FBD1
:1040300014E0082004002000441E40B200280DD0E7
:104040000022002164B21748205C00F02DF8032103
:1040500064B21448205CFFF773FBECE710BD10B5A9
:10406000040064B20F48205C00F0CAF8002801D1B7
:10407000002000E0012010BD10B50400200040B277
:10408000FFF7EDFF00280AD10A20FFF7A8FF200064
:1040900040B2FFF7E4FF002801D1002000E001203A
:1040A00010BD0000300CFF1F70B504000D0016009D
:1040B0004FF480712000C0B2FFF720FB6DB2002DDD
:1040C00011D1E4B260115D4951F82000E4B26111F0
:1040D0005A4A52F821104969012214F01F039A40EC
:1040E0009143416136E0E4B26011544951F8200037
:1040F000E4B26111514A52F821104969012214F0C9
:104100001F039A4011434161F6B2002E11D1E4B26F
:1041100060114A4951F820000068012114F01F0283
:1041200091408843E4B26111444A52F8211008607A
:1041300010E0E4B26011414951F82000006801210B
:1041400014F01F0291400843E4B261113B4A52F857
:104150002110086070BD38B504000D00E4B2601194
:10416000364951F82000406914F01F01C840C007CB
:1041700003D463213248FFF72EFBEDB2002D11D19D
:10418000E4B260112D4951F820000068012114F0BB
:104190001F0291408843E4B26111284A52F821106D
:1041A000086010E0E4B26011244951F82000006872
:1041B000012114F01F0291400843E4B261111F4A2B
:1041C00052F82110086031BD10B50400E4B260114E
:1041D0001A4951F82000406914F01F01C840C00777
:1041E00003D47B211648FFF7F6FAE4B260111349B5
:1041F00051F82000012114F01F029140C16010BD50
:1042000010B50400E4B260110C4951F82000406977
:1042100014F01F01C840C00703D58C210848FFF7E0
:10422000DAFAE4B26011054951F82000006914F08F
:104230001F01C84010F0010010BD0000900BFF1FCF
:10424000D873000080B500F024F801BDC5480021F6
:104250000180C448EF214180C24800218180C148CB
:104260000021C180BF4840F23F110181BD480021BB
:104270004181BC4800218181BA480021C181BA48EE
:1042800000214170B84800218170B74800210170B9
:1042900070472DE9FC47B54801905FF0000A012402
:1042A0000020ADF800000020ADF802000025002637
:1042B00000275FF000085FF00009FFF7C7FFAC4878
:1042C000008882461FFA8AFABAF1EF0F78DA51466F
:1042D00089B201A800F03FF90020ADF800000020ED
:1042E000ADF802000DF1020200A9019800F042F9B8
:1042F000BDF80000002806D1BDF80200002802D158
:104300000020060003E001200600002081467FB265
:10431000012F3CD176B2012E39D1BDF80000ADB2EB
:10432000401B012804DBBDF80000ADB2401B03E0D8
:10433000ADB2BDF80000281A062828DA8A48012103
:104340008170884840881FFA8AFA824502D28548DF
:10435000A0F802A08348C0881FFA8AFA504502D20A
:104360008048A0F806A0BDF800007E49098988426F
:1043700003D27C48BDF8001001817A488089BDF8DD
:104380000210884203D27748BDF802108181BDF83F
:1043900000000500370076B2002E0ED1724890F969
:1043A0000200012809D119F101095FFA89F9B9F16F
:1043B000040F02D10020814602E05AFA84FA81E714
:1043C0006B48008882461FFA8AFABAF1000F79D04A
:1043D000514689B201A800F0BEF80020ADF80000F7
:1043E0000020ADF802000DF1020200A9019800F0D2
:1043F000C1F8BDF80000002806D1BDF80200002871
:1044000002D10020060003E00120060000208046C3
:104410007FB2012F3CD176B2012E39D1BDF8000018
:10442000ADB2401B012804DBBDF80000ADB2401B5B
:1044300003E0ADB2BDF80000281A062828DA4A4881
:1044400001214170474840881FFA8AFA824502D20A
:104450004448A0F802A04348C0881FFA8AFA504591
:1044600002D24048A0F806A0BDF800003D490989E5
:10447000884203D23B48BDF8001001813948808949
:10448000BDF80210884203D23648BDF8021081817F
:10449000BDF800000500370076B2002E0ED132487C
:1044A00090F90100012809D118F101085FFA88F894
:1044B000B8F1040F02D10020804603E0E4B2BAEB69
:1044C000040A80E7284890F9020000280BD126480A
:1044D00090F90100002806D12348002101702248EC
:1044E0000121C17002E02048012101701E4890F9AD
:1044F0000000012822D11B481A49098A0183194862
:104500001849498A4183174800891649898911FA4F
:1045100080F0022190FBF1F0124908821148408896
:104520001049C98811FA80F0022190FBF1F00D4981
:1045300048820C48408A0E4908800AE00C487821DD
:10454000018008480749098B018206480549498BC3
:104550004182BDE8F38789B22822044B02FB013275
:10456000026070478816FF1FA416FF1FAC16FF1FBE
:104570002E0CFF1F2DE9F04F82468946514600233D
:1045800000240025002680275FF0010C5FF0000E5C
:104590005FF0000800200300DBB2282B80F2C5800A
:1045A000DBB2585C050080200700EDB2FF2D07D17B
:1045B0005FFA8CFCBCF1010F02D101208446B2E00D
:1045C00000200400E4B2082C80F2AD805FFA8CFC7D
:1045D000BCF1010F44D13800C0B2284240D1E4B24E
:1045E000062C10DAFFB2EDB215EA670F0BD1FFB25D
:1045F000EDB215EAA70F06D1DBB2D80050FA84F06D
:10460000A9F800002CE0E4B2062C14D1DBB2272B71
:1046100011DAFFB2EDB215EA670F0CD1DBB2581810
:104620004078060030061BD4DBB2D80050FA84F084
:10463000A9F8000014E0E4B2072C11D1DBB2272B5B
:104640000EDADBB25818407806005FF0C00B16EAAD
:104650000B0F05D1DBB2D80050FA84F0A9F80000A6
:104660005FFA8CFCBCF1000F45D13800C0B2284283
:1046700041D01FFA88F8B8F1030F3CDBE4B2062CF6
:104680000FDAFFB2EDB215EA670F0AD0FFB2EDB252
:1046900015EAA70F05D0DBB2D80050FA84F01080DD
:1046A00029E0E4B2062C13D1DBB2272B10DAFFB2DB
:1046B000EDB215EA670F0BD0DBB258184078060050
:1046C000300618D5DBB2D80050FA84F0108012E022
:1046D000E4B2072C0FD1DBB2272B0CDADBB258186F
:1046E0004078060016F0C000C02804D1DBB2D80024
:1046F00050FA84F010803800C0B2284204D1002063
:1047000084461EF1010E03E0002086460120844607
:104710001FFA88F81FFA8EFEF04500D2F046FFB26D
:104720007F08641C4EE75B1C36E71088002807D121
:104730001FFA88F8B8F1030F02DB40F23F10108037
:104740001FFA88F8B8F1030F04DA0020A9F8000076
:1047500000201080BDE8F08F80B5DFF8240490F9C8
:104760000000002803D0022863D07BD3B9E00121E8
:104770000220FFF7CEFBDFF814040078DFF84414C2
:1047800011EB800090ED000AB5EE400AF1EE10FA50
:104790000BD1002000F022F900EE100AB8EE400A1A
:1047A000DFF8B80380ED140A0AE0012000F016F9E2
:1047B00000EE100AB8EE400ADFF8A00380ED140AFC
:1047C00000F090F8DFF8980380ED000ADFF89C0312
:1047D00090ED000ADFF88803D0ED000A30EE200AE1
:1047E000DFF8940380ED000ADFF88423DFF88413F8
:1047F000DFF8840390ED000ADFF88003006800F022
:1048000047FA00F08CF900F0A2F8012810D1DFF887
:10481000700302210170DFF850030021017000F0E5
:10482000C5F8012804D1DFF858030021017058E0D1
:1048300057E000F0BBF8012804D1DFF84403002161
:1048400001704EE0C7480088401CC6490880C54832
:104850000088042805DBCA4801210170C1480021F5
:1048600001803EE000210220FFF753FBBE49C24811
:10487000BE4AD2ED000AC04A92ED000A00F0CFF81D
:10488000BB4ABC49BC4890ED000ABC48006800F037
:10489000FFF900F082F801280FD1BC480078401CD5
:1048A000BA490870B94800780B2802D1B7480121ED
:1048B0000170B3480021017013E0B4480078C14989
:1048C00011EB800090ED000AB5EE400AF1EE10FA0F
:1048D00004D1BA487FF04901018002E0B748502175
:1048E000018001BD10B52DED028B0024A548408A42
:1048F0000400A4B2002C01D1012404E0A4B2652C70
:1049000001DB6424FFE7A4B2D4F16400FCF7F0FEFD
:1049100041EC110BB0EE418AF0EE618A8F48806D58
:1049200000F04EFA41EC100BB0EE481AF0EE681AA7
:10493000FDF7E8FC53EC102B9348A149FCF7B6FCBB
:10494000FEF71EFE00EE100ABDEC028B10BD8D4876
:10495000408A60280BDB8D4800789A4911EB800073
:1049600090ED000AB5EE400AF1EE10FA11D085483C
:10497000408A65280FDB85480078924911EB80005A
:1049800090ED000AF7EE000AB4EE600AF1EE10FABC
:1049900001D1012000E0002070478B4890F9000011
:1049A000012801D1012000E0002070477548408AAD
:1049B0007449498B401A012805DB7248408A7149C5
:1049C000498B401A04E06F48408B6E49498A401A6F
:1049D000152801DB012000E0002070470100694834
:1049E000B0F91200401E00B2002801D5002004E0FA
:1049F00000B2F12801DBF020FFE749B2002904D121
:104A000000B2634A32F8100008E049B2012904D12B
:104A100000B26E4A32F8100000E0FEE7704738B589
:104A20002DED028BB0EE408AF0EE608A05000C009E
:104A30002078002816D100200021C4E902010020BE
:104A4000608238EEC80A208A00EE900AF8EE600A0A
:104A500080EE200A10EE100A00F0B2F9C4E902015B
:104A6000012020702078012812D1286800F0A8F9D0
:104A7000D4E90223FCF754FFFEF782FD2860608A28
:104A8000401C6082608A218A884201D30220207003
:104A90002078BDEC028B32BD10B52DED088B0024C3
:104AA0009FED3C8B9FED3D9B9FED3EAB9FED3FBB54
:104AB00053EC192B00203F49FCF732FF41EC190B56
:104AC00000200400F02C11DA2000FCF711FE53EC5A
:104AD000182BFCF7EBFB53EC192BFCF721FFFCF731
:104AE000DBFD2B4921F81400641CEBE700200400D7
:104AF000F02C11DA2000FCF7FBFD53EC1A2BFCF72D
:104B0000D5FB53EC1B2BFCF70BFFFCF7C5FD2F4926
:104B100021F81400641CEBE7BDEC088B10BD1948AC
:104B2000408A322815DA2448B0F90000A12803DBB6
:104B30002748012101700FE01F48B0F90000A128AB
:104B400003DA23480221017006E0214800210170A8
:104B500002E01F4800210170704700001013FF1F82
:104B6000F03FFF1F9441FF1FB00CFF1FA80CFF1F59
:104B70008814FF1FF413FF1FF43FFF1FEC3FFF1FBC
:104B80009E41FF1F8816FF1F9A9999999D41FF1F0B
:104B90002C3CFF1FA089B0E1E995EA3F8A8EE4F240
:104BA0001FE261407D3F355EBA49ECBF16FBCBEE9C
:104BB000C9BB644000002440F83FFF1F9241FF1F23
:104BC0009999F13FFC3FFF1FA416FF1F0C3EFF1FEA
:104BD0009C41FF1F80B54FF4437332220121022014
:104BE000FEF75EFF01BD10B5040024B214F14A0FB8
:104BF00002DA7FF04900040024B2512C01DB50207E
:104C00000400674824B2046024B214F54372012101
:104C10000220FFF71AF810BD70B500200600642EC0
:104C200035DA00EE106AB8EEC00ADFED5C0A20EE5D
:104C3000200A10EE100A00F0C3F841EC100B00F04F
:104C40001FF953EC102B5FF080405649FCF72EFB08
:104C500004000D003000FCF74BFD534A534BFCF7AA
:104C600025FB41EC100B00F00BF953EC102B5FF01F
:104C700033304F49FCF71AFB22002B00FCF750FEA3
:104C80004C4A12EBC602C2E90001761CC7E770BDB0
:104C90002DE970432DED048B0500B0EE408A0C0029
:104CA0001600012D37DB434810EBC50090ED000BDB
:104CB000B0EE409AF0EE609A18EE100A00F080F81C
:104CC0008046894653EC192B00203B49FCF728FE0F
:104CD00042464B46FCF7EAFA53EC192BFCF7B8FBBB
:104CE000FEF74EFC306018EE100A00F069F88046BE
:104CF000894653EC192B00203049FCF711FE42463F
:104D00004B46FCF7D3FA53EC192BFCF7A1FBFEF74B
:104D100037FC20603EE0002D38D56842254911EB74
:104D2000C00090ED000BB0EE409AF0EE609A18EEE5
:104D3000100A00F045F88046894653EC192B0020F4
:104D40001E49FCF7EDFD42464B46FCF7AFFA53EC2B
:104D5000192BFCF77DFBFEF713FC306018EE100AF0
:104D600000F02EF88046894653EC192B002012499A
:104D7000FCF7D6FD42464B46FCF798FA53EC192B4C
:104D8000FCF766FBFEF7FCFB206003E086ED008A83
:104D900084ED008ABDEC048BBDE870834260A5BD44
:104DA000EC3FFF1F33737B403A58FFE7305F8EBF05
:104DB00033135A40A00FFF1F00002240000022C002
:104DC0005FF0FF0C1CEAD05114BF614506E0C11032
:104DD000400721F0E04101F16051704779B900F0DE
:104DE000004100020AD0B0FA80FC00FA0CF001F198
:104DF0006051A1EB0C5101EBD021400570474102FD
:104E00000CBF40F4E0016FF000010020704700008B
:104E100083B582B09DED020B8DED000BDDE9002323
:104E2000C3F30A5140F2FF72914208D0002904BF37
:104E3000190350EA113011D1104905B000BD190312
:104E400050EA113011D1039800284CBF9FED090B97
:104E50009DED020B51EC100B05B000BD0020009041
:104E60000022064B02A800F013F8DDE9020105B0AC
:104E700000BD000000000000000000000000F03F46
:104E800080B551EC100BFFF7C3FF41EC100B01BDD7
:104E90002DE9704C04462DED088BD4E9000143EC5C
:104EA000182B00F054F9064651EC180B00F04FF99E
:104EB0000E9D310006D500284AD4022805D184ED84
:104EC000008B40E1022EF8D121E050B9D4E9000175
:104ED0000022334B00F05CF90FD084ED008B0020F2
:104EE00031E1012815D1D4E9000100222D4B00F059
:104EF0004FF918BF84ED008B50D100F059F92121F2
:104F000001604FF0FF306FF00041C4E90001022062
:104F100019E17EB984ED008B2946204600F04EF958
:104F2000040018BF012C40F00D8100F041F922214E
:104F3000016007E1D4E900010022194B00F028F9D3
:104F40000FD151EC180BFCF7B1F9C4E9000125E0D1
:104F500094ED009B144B51EC190B0022FCF78EF9D9
:104F60000BD251EC180B0023FCF7A0F9C4E90001A7
:104F7000BDEC088B0020BDE8708C01220B4BFDF7C7
:104F800009FE15D851EC180B0022054BFCF78EF9E1
:104F9000C4E9000100F00CF9222101600120D2E0F7
:104FA0000000F07F0000F0FF00C89CC000C89C40DB
:104FB000384A394BFCF77AF900220023FCF75EF9F6
:104FC00034BF9FED360B9FED370B53EC102BFCF7E6
:104FD000A7FCFCF761FB0646FCF78AFB41EC1A0BC9
:104FE0004FF07842314BFCF761F902460B4651EC29
:104FF000190BFCF795FB82468B4653EC1A2B2C4879
:105000002C49FCF753F902460B4650465946FCF72B
:1050100087FB6FF00102284BFDF7BCFD41EC190B3B
:1050200005D80022254BFCF729F9C0F07D8053EC10
:10503000192BFCF73BF941EC1A0B214A214BFCF7E9
:1050400035F9214A214BFCF76BFC53EC1A2BFCF78A
:105050002DF91F4A1F4B41EC1B0B51EC1A0BFCF7AF
:1050600025F91D4A1D4BFCF75BFC53EC1A2BFCF792
:105070001DF91B4B0022FCF753FC53EC192BFCF7DA
:1050800015F941EC190B9FED01AB2BE0000000007E
:105090000000F03FFE822B654715F73F000000003F
:1050A0000000E0BF000000000000E03F422EE63FAD
:1050B000F2E4D5BCE7E84B3EFFFF8FBC0000903C1C
:1050C000112E5781A03F503F5843128C8F71BC3F27
:1050D0004BE8A541B752013F0BBDF3DAE8708C3FB6
:1050E0000000E03F51EC1B0B53EC192BFCF718FCB4
:1050F00053EC1A2BFCF714FC82468B4651EC1B0B2D
:1051000053EC192BFCF70CFB53EC1A2BFCF708FCA7
:1051100002460B4650465946FCF79AF953EC182BB9
:10512000FCF7C4F841EC180B84ED008BA91920465C
:1051300000F044F8040018BF012C03D100F038F847
:10514000222101602046BDEC088BBDE8708C03B4C1
:10515000DDE90023C3F30A5140F2FF72914206D009
:1051600001B10CE0190350EA113006D00BE019032D
:1051700050EA113014BF0220012002B070474FF0F6
:10518000FF3002B070476FF0010002B070470000BE
:1051900090420CD141EA030C50EA4C0C07D09942E2
:1051A00005D14FF4001C1CEB410F38BF89427047FA
:1051B0000148FCF729BC00002C42FF1F70B50446D3
:1051C0000D466068C0F30A5040F2FF71884207D173
:1051D0006068000304BF2068002817D0022070BD5B
:1051E00020B92046FCF729F8012867DA012D0FDBEA
:1051F00040F2FF71091A8D420AD3606800284CBF43
:105200009FED2F0B9FED300B84ED000B012070BD47
:105210004142A942616806DA6FF31E51401941EA22
:105220000050606041E0401E63680122451962F34E
:105230001F5305F1350001F000416360352803D3A9
:1052400061600020206070BD002215F11F0F04DA9C
:1052500022682360002020356060684213D0521E0F
:1052600025689241C0F12003D2439D4045EAD272A5
:1052700025686668C54006FA03F32B43236063681C
:1052800023FA00F06060606808436060B2F1004F8C
:1052900003D80DD12078C0070AD52068401C2060B3
:1052A000206828B96068401C60604FF0FF3070BD16
:1052B0006068884204BF20680028F6D1002070BDD5
:1052C000000000000000F0FF000000000000F07F80
:1052D000DFF800F0A90EFF1F40B2DFF8981331F895
:1052E000201040B20128C0F26B8140B2162880F233
:1052F0006781DFF884230023137089B23D2904DA23
:10530000DFF874230023537078E089B2792904DA36
:10531000DFF864230123537070E089B2B52904DA01
:10532000DFF854230223537068E089B2F12904DACC
:10533000DFF844230323537060E089B2B1F5967F10
:1053400004DCDFF834230423537057E089B2B1F54D
:10535000B47F04DCDFF82023052353704EE089B2CC
:10536000B1F5D27F04DCDFF810230623537045E04B
:1053700089B2B1F5F07F04DCDFF8FC22072353701B
:105380003CE089B2B1F5077F04DCDFF8EC220823AA
:10539000537033E089B2B1F5167F04DCDFF8D82210
:1053A000092353702AE089B2B1F5257F03DCB24AA4
:1053B0000A23537022E089B2B1F5347F03DCAE4A90
:1053C0000B2353701AE089B2B1F5437F03DCAA4A7C
:1053D0000C23537012E089B2B1F5527F03DCA64A68
:1053E0000D2353700AE089B2B1F5617F03DCA24A54
:1053F0000E23537002E0A04A0F23537089B21A297A
:1054000003DA9D4A0023937069E089B2332903DAF5
:10541000994A0123937062E089B24C2903DA964AD3
:10542000022393705BE089B2652903DA924A032371
:10543000937054E089B27E2903DA8F4A0423937073
:105440004DE089B2972903DA8B4A0523937046E031
:1054500089B2B02903DA884A062393703FE089B203
:10546000C92903DA844A0723937038E089B2E22914
:1054700003DA814A0823937031E089B2FB2903DA09
:105480007D4A092393702AE089B2B1F58A7F03DA55
:10549000794A0A23937022E089B2B1F5967F03DC42
:1054A000754A0B2393701AE089B2B1F5A37F03DA32
:1054B000714A0C23937012E089B2B1F5AF7F03DC1F
:1054C0006D4A0D2393700AE089B2B1F5BC7F03DA0F
:1054D000694A0E23937002E0674A0F23937089B2E2
:1054E0001A2903DA644A0023D37069E089B23329A8
:1054F00003DA614A0123D37062E089B24C2903DAEE
:105500005D4A0223D3705BE089B2652903DA5A4A07
:105510000323D37054E089B27E2903DA564A042368
:10552000D3704DE089B2972903DA534A0523D3702B
:1055300046E089B2B02903DA4F4A0623D3703FE030
:1055400089B2C92903DA4C4A0723D37038E089B2FB
:10555000E22903DA484A0823D37031E089B2FB29F3
:1055600003DA454A0923D3702AE089B2B1F58A7F6C
:1055700003DA414A0A23D37022E089B2B1F5967F5B
:1055800003DC3D4A0B23D3701AE089B2B1F5A37F47
:1055900003DA394A0C23D37012E089B2B1F5AF7F38
:1055A00003DC354A0D23D3700AE089B2B1F5BC7F24
:1055B00003DA314A0E23D37002E02F4A0F23D3704F
:1055C000704710B50400200040B2FFF785FE2B485D
:1055D000007810F0FD00294908702848007850F044
:1055E0001000264908702648B82101702548007827
:1055F000C006FBD423480078C0F38100C0B2022863
:10560000F8D11D48C3781C4882781B4841781A4855
:105610000078FFF75DFE64B2164810EB84008078D6
:1056200010F007001849087064B2124810EB8400AB
:10563000C07810F01F0050F0400014490870114865
:1056400000788006FBD50F4800784006FBD50C4853
:10565000007810F03F000A4908700A480078C0F34B
:105660008100C0B20328F8D164B2024830F82400A7
:10567000C0B210BDA40BFF1FFC0BFF1F0140064072
:1056800000400640064006400440064005400640F3
:1056900070B52DED028B0400B0EE408A0D0009209C
:1056A0000600B6B2002E09D0B6B214EB8600B6B230
:1056B00014EB8601096A4162761EF2E784ED098ADD
:1056C0006DB2012D17D1B4F84C00401CA4F84C0069
:1056D000B4F84E00B4F84C10884203D2B4F84E002F
:1056E000A4F84C00B4F84C1014F1240000F0D8F9E0
:1056F00084ED070A02E00020A4F84C00BDEC028B08
:1057000070BD38B504000D00606DE0656DB2012D0F
:105710003ED194ED140AD4ED070A30EE600A84ED10
:10572000150A94ED150AB5EE400AF1EE10FA02DD05
:10573000606DA06505E094ED150AB1EE400A84EDB8
:10574000160A606D606694ED150A00F076F9D4EDE6
:105750001E0AB4EE600AF1EE10FA0ED594ED1A0AA4
:10576000D4ED150A30EE200A84ED1A0A94ED1D0AD4
:1057700014F1680000F082F901E00020A06694EDC9
:10578000150AD4ED170A30EE600A84ED1B0A07E013
:1057900000206065002060660020A0660020E066B2
:1057A00031BD10B5040000202060200000F028F872
:1057B000D4ED000A30EE800A84ED000A94ED000A70
:1057C000D4ED020AB4EE600AF1EE10FA02D5A06838
:1057D00020600AE094ED030AD4ED000AB4EE600AFA
:1057E000F1EE10FA01D5E068206094ED000ABDEEFC
:1057F000C00A10EE100AA080B4F9040010BD000029
:1058000090ED040AD0ED190A20EE200A80ED200A5E
:1058100090ED050AD0ED1A0A20EE200A80ED210A4B
:1058200090ED060AD0ED1B0A20EE200A80ED240A36
:1058300090ED210AD0ED220AB4EE600AF1EE10FAE2
:1058400004D5D0F88810C0F884100CE090ED230A3D
:10585000D0ED210AB4EE600AF1EE10FA03D5D0F8CB
:105860008C10C0F8841090ED240ADFED3F0AB4EEEE
:10587000600AF1EE10FA02DB0021C0F8901090ED02
:10588000200AD0ED210A30EE200AD0ED240A30EEB5
:10589000200A80ED1F0A90ED1F0A704780B5DFEDEA
:1058A000330A9FED330A354800F078F8DFED310A0E
:1058B0009FED310A324800F071F8DFED2E0A9FEDBE
:1058C0002E0A304800F06AF82C482F4901612B4815
:1058D0000021416129482D49816128480121A0F812
:1058E0004E1026480021016524481F49416723487E
:1058F0002749816721482749C0F838111F482649A0
:10590000C0F83C111D480021C0F840111B4802217D
:10591000A0F8761119480021C0F8781117481549E8
:10592000C0F89C1115481349C0F8A0111348194933
:10593000C0F8A41011481849C0F8A8100F48002159
:10594000C0F8AC100D480221A0F8E2100B4800216D
:10595000C0F8E41009480749C0F80811074805498C
:10596000C0F80C1101BD00000000FA440000C8425C
:105970000000C8C200401C4600401CC61013FF1F98
:10598000A413FF1F3814FF1F3333333F3333134047
:10599000000020410080A2430000884110B52DED99
:1059A000028B0400B0EE408AF0EE608A0020206096
:1059B0000020A08084ED028AC4ED038A0022282101
:1059C00014F1240000F02CF80020A4F84C00002072
:1059D0006065002060660020A0660020E066002070
:1059E000E0650020E0670020C4F880000020C4F8D3
:1059F00084000020C4F8900094ED020AF7EE000A3B
:105A000020EE200A84ED220A94ED030AF7EE000A44
:105A100020EE200A84ED230ABDEC028B10BD0000AD
:105A200010B4002423009BB289B28B4203D29BB2F4
:105A30001A545B1CF7E710BC7047B5EE400AF1EE54
:105A400010FA01DAB1EE400A7047F4EE400AF1EEC6
:105A500010FA12DB90ED001AB4EE401AF1EE10FAD3
:105A600002D580ED000A08E090ED001AF4EE410A3C
:105A7000F1EE10FA01D5C0ED000A704710B52DED1A
:105A8000028B0400B0EE408AF0EE480AB1EE480AFC
:105A90002000FFF7DAFFBDEC028B10BD0000000014
:105AA00070B506000C00A4B2012C02D196ED000ADC
:105AB00060E0A4B2022C18D196ED000AD6ED010ADE
:105AC00030EE200AF0EE000A80EE200A10EE100AF6
:105AD000FFF776F9284AC2E90001274841680068C3
:105AE000FDF74EFD00EE100A44E0A4B2032C3FDBAC
:105AF00000200500ADB2A4B2A54208D2ADB256F85E
:105B00002500ADB21D4941F825006D1CF2E72100CA
:105B100089B21A4800F036F8174800220023C0E97D
:105B2000002301200500A4B2A01EADB2A8420FDBE5
:105B3000ADB2124850F82500FFF742F90E4A5368FB
:105B40001268FBF7EDFE0C4AC2E900016D1CEAE7A2
:105B5000A4B2A01EFBF7CCFD02000B000648416872
:105B60000068FBF775FCFDF70BFD00EE100A01E085
:105B70009FED030A70BD0000F80EFF1FC012FF1F4B
:105B800000000000F8B52DED028B04000D00ADB251
:105B9000022D4CDB00200600681E0700B6B254F848
:105BA000260008EE100AB6B2BFB2BE422DD2B6B27F
:105BB000BFB2BE4212D2BFB214EB870090ED000A12
:105BC000B4EE480AF1EE10FA06D5B6B2BFB254F8F8
:105BD000270044F8260001E07F1EE8E7B6B2BFB216
:105BE000BE42E0D2B6B214EB860090ED000AB4EEED
:105BF000408AF1EE10FA06D5BFB2B6B254F82600CC
:105C000044F82700CFE7761CE8E7B6B214EB86002D
:105C100080ED008A761C310089B22000FFF7B2FFC8
:105C2000A91B89B2B6B214EB8600FFF7ABFFBDEC3F
:105C3000028BF1BD01B4BDF80000002805D0BDF80D
:105C40000000401EADF80000F5E701B0704780B5D8
:105C5000012201212820FEF727FA01220121292013
:105C6000FEF722FA23212820FDF76AFD23212920AF
:105C7000FDF766FD01BD80B57A48012101607A48D3
:105C8000012101604FF4C870FFF7D4FF774800216D
:105C9000016077480068002804D174480121016040
:105CA000002016E07148012101606E48002101606A
:105CB0004FF4C870FFF7BEFF6B48002101606C48CD
:105CC0000068002804D0694801210160002000E03C
:105CD000012002BD80B564480021016061480021B7
:105CE00001604FF4C870FFF7A5FF5F480121016014
:105CF0004FF4C870FFF79EFF5A48012101604FF42E
:105D0000C870FFF797FF01BD80B5574800210160BB
:105D10004FF4C870FFF78EFF5248002101604FF426
:105D2000C870FFF787FF5048012101604FF4C87029
:105D3000FFF780FF4C48002101604FF4C870FFF767
:105D400079FF01BD80B54848002101604FF4C8705B
:105D5000FFF770FF4348012101604FF4C870FFF75F
:105D600069FF4148012101604FF4C870FFF762FFED
:105D70003D48002101604FF4C870FFF75BFF01BD93
:105D800080B53948002101603848002101604FF496
:105D9000C870FFF74FFF3448012101604FF4C8700D
:105DA000FFF748FF32480068002807D02F4801213C
:105DB00001602D4800210160002006E02B480121F0
:105DC0000160294800210160012002BD38B50500AD
:105DD00008242000441EC0B2002818D0280603D58D
:105DE00020480121016002E01E48002101606D0091
:105DF0004FF4C870FFF71EFF1B48012101604FF4EC
:105E0000C870FFF717FF184800210160E1E731BDB6
:105E100038B5082400251548002101602000441EE3
:105E2000C0B2002815D06D000F48002101604FF46A
:105E3000C870FFF7FFFE0C48012101604FF4C870E5
:105E4000FFF7F8FE0A4800680028E7D055F0010582
:105E5000E4E7064801210160034800210160EDB23A
:105E6000280032BD2408FE432008FE43A40AFE4356
:105E7000240AFE4370B504000D0000262900C9B2B3
:105E8000200080B200F00AF8002805D1761CF6B296
