:10000000F8FF0020110400009F3100009F31000024
:100010009F3100009F3100009F3100009F310000A0
:100020009F3100009F3100009F3100009F31000090
:100030009F3100009F3100009F3100009F31000080
:100040009F3100009F3100009F3100009F31000070
:10040000FFFFFFFFFFFFFFFFFFFFFFFFFEFFFFFFFD
:1004100062B603F0F3FFFEE72DE9F04FA1B082468C
:1004200002AE002017461D46029170620DF144088D
:100430000AE017F8011B0298D0470290002800F04C
:10044000D482706A401C7062387808B9706ACEE253
:100450002528EED10020F06030617061B061F0615C
:10046000306201E040F0010017F8011F2029F9D0A7
:1004700023290DD02B2904D02D2906D030290AD0CC
:100480000CE040F0020080B2EEE740F00400FAE732
:1004900040F00800F7E740F01000F4E72A290DD1FA
:1004A00029680A1D2A600968F162002904D54942B9
:1004B00040F00400F16280B27F1C13E00021F16281
:1004C0000BE0F16A6FF00043994205D001EB810324
:1004D00002EB43013039F1627F1C3A78A2F130011E
:1004E0000A29EED339782E2903D04FF0FF31B162BB
:1004F0001EE017F8011F2A2906D129680A1D2A6063
:100500007F1C0968B16213E00021B1620BE0B16A9F
:100510006FF00043994205D001EB810302EB4301E8
:100520003039B1627F1C3A78A2F130010A29EED34A
:1005300030860FF6BC20397800F078FD08B117F846
:10054000010B8DF83A009DF83A00682802BF39780F
:100550006829622005D06C2804BF38786C2803D144
:1005600071208DF83A007F1C11A8B0603978B1F184
:10057000250023D02038022840F2B980133800F03B
:10058000E1800B3800F07781401E00F02081401E92
:10059000022840F2AC80001F00F01981401F7BD080
:1005A000401E00F0CF80401E22D0C01E0BD0801E07
:1005B00000F0C880C01E00F0C58064E1F068411CF6
:1005C000F160252169E12868011D29600068B26A8F
:1005D0007060002A02D500F035FD07E0002100F030
:1005E0004DFD00281ABF7168401AB06A306156E1AB
:1005F0002868011D296000210068CDE900014FF045
:100600003C0E11A87060DDE9000111B908B9B26AA9
:10061000CAB10206120FA0EB02123032AEF1010392
:10062000D2B29E463A2AA8BF2732000903F8082012
:1006300040EA0170090908BF002804D0726811ABB4
:1006400073449A42E5D311A971447160CEF13C0024
:10065000B16A3061884207DA081AB0614FF6EF716B
:10066000308E084030861AE1002940F1188196F852
:10067000301001F01401102940F01181F16AF26884
:10068000891AB269891AA1EB000EBEF1010FC0F2FE
:100690000681C6F818E002E19DF83A00622818D0F9
:1006A000682806D06A280BD06C2819D0712807D08A
:1006B00016E02868011D29600068716A0180EEE07B
:1006C0002A68101D28601268706AC117C2E900010B
:1006D000E5E02868011D29600068716A0170DEE0AC
:1006E0002868011D29600068716A0160D7E02868E8
:1006F000C01D20F00700286000F108022A60D0E940
:100700000023CDE90023002B04D5F068421CF260E1
:100710002D220DE0308E820704D5F068421CF26075
:100720002B2205E0C00705D5F068421CF2602022AC
:1007300000F80820F06811AA8018706000A800F086
:10074000E3F9ACE09DF83A006C2808BF2A6811D0A4
:10075000712808BF2A6802D02A686A280AD1D21DE7
:1007600022F007022A60144604F108022A60D4E944
:10077000002303E0131D2B6000231268CDE9002342
:10078000682808BF92B207D0622808BFD2B203D04F
:10079000742818BF7A2802D10023CDE9002396F8E7
:1007A000300000075FD5DDE90023002B08BF002AD9
:1007B00059D041F02000782855D1F068302200F857
:1007C0000820401C421CF26000F808104BE09DF825
:1007D0003A0062280CD0682810D06A281AD06C28F9
:1007E00023D0712816D074281FD07A280CD01CE092
:1007F0002868021D2A6090F900201AE02868021D6E
:100800002A60B0F9002014E02868021D2A60002345
:1008100002680FE02868C01D20F00700286000F182
:1008200008022A60D0E9002304E02868021D2A603B
:100830000268D317CDE90023002B04DAF068421CCC
:10084000F2602D220DE0308E820704D5F068421C44
:10085000F2602B2205E0C00705D5F068421CF2606B
:10086000202200F80820F06811AA8018706000A803
:1008700000F0C0F813E0F068411CF16029680A1D1F
:100880002A60096809E0F068421CF260252200F83D
:10089000082021B1F068421CF26000F80810F06AEC
:1008A000F168401AB169401A3169401AF169401A79
:1008B0007169401A316AA0EB010996F830007F1C7B
:1008C000400710D420208DF84000002409E00123C7
:1008D00010AA00A9504600F073FB002840F0858064
:1008E000641C4C45F3DBF4680DF1440B0AE01BF883
:1008F000011B0298D0470290002876D0706A401CF5
:100900007062641E002CF2D130208DF840004FF050
:10091000000BB46909E0012310AA00A9504600F0B9
:100920004FFB002861D10BF1010BA345F3DB3469C8
:10093000D6F804B00AE01BF8011B0298D0470290D9
:10094000002852D0706A401C7062641E002CF2D1E4
:1009500030208DF840004FF0000BF46909E00123CE
:1009600010AA00A9504600F02BFB00283DD10BF146
:10097000010BA345F3DB30697168746900EB010B6F
:1009800009E01BF8011B0298D047029068B3706A17
:10099000401C7062641E002CF3D130208DF84000A2
:1009A0004FF0000B346A08E0012310AA00A950465A
:1009B00000F006FBC8B90BF1010BA345F4DB96F878
:1009C000300040077FF540AD20208DF84000002426
:1009D00000E0641C4C45BFF637AD012310AA00A906
:1009E000504600F0EDFA0028F3D04FF0FF3021B070
:1009F000BDE8F08F2DE9FA47064682B035690A4610
:100A00006F2A08BF082705D041F02000782814BFBE
:100A10000A271027D6E900013C2480468946642A2B
:100A200018BF692A05D1002903DAD8F1000869EB5B
:100A30004909B9F1000F08BFB8F1000F0CD1306BB4
:100A400050B9082F3BD196F83800000737D5302031
:100A50003B2485F83B0032E0CDE90089FB17404696
:100A600049463A4600F036FBB846A8FB0023DDE9CC
:100A70000089A8EB02023032A4F1010AD2B2544636
:100A80003A2A03DB9DF80830513B9A180AF80520F2
:100A900080465FEA010908BFB8F1000F03D0F06893
:100AA00061198842D8D3082F09D196F83800000779
:100AB00005D5605D302802D0641E30206055C4F139
:100AC0003C00B0616119F160316B884207DA081AA5
:100AD00030624FF6EF71308F0840308710E0002908
:100AE0000ED596F8381001F01401102908D1716B59
:100AF0007269891A326A891A081A0128A8BF3062F5
:100B000004B0BDE8F08700002DE9F34F8BB0D0E9C9
:100B10000089006B01AF002802D50B98062106E082
:100B200004BF41F02000672802D10B980121016326
:100B30000B984168C1F30A5040F2FF72904220D1F5
:100B4000080302BF0B98006800280AD10B98032104
:100B500081619DF8300061381A2858D30FF2A44102
:100B600009E00B98032181619DF8300061381A2853
:100B70004AD30FF288410B98C068032200F022FB91
:100B800001E1012807DA0B9800F057FB012802DB8E
:100B900000230026EEE00B9A526840F2FE3161F32A
:100BA0001E520B994A6040F2FE31461A40464946B1
:100BB0000022002300F062FB38BF89F0004936B202
:100BC00047F2975070434A49DFF828B190FBF1F69D
:100BD00036B2C6F107079246012F1BDBF80707D58F
:100BE00052465B464046494600F060FB80468946D7
:100BF0007F105046594652465B4600F057FB8246EE
:100C00008B46002FEAD126E00FF2EC31B3E70FF26A
:100C1000F031B0E77F420024374D12E0F80707D5E6
:100C200052465B462046294600F040FB04460D46EE
:100C30007F105046594652465B4600F037FB8246CD
:100C40008B46002FEAD14046494622462B4600F00B
:100C5000FFFB804689469DF8300040F02005662D58
:100C60000CBF06F10A0006200B99096B4718142FD8
:100C7000A8BF132730208DF804000DF10504DFF81C
:100C80007CB0012F3CDB4046494600F01BFD01468D
:100C900004F1080204234FF00A0CB1FBFCFC0CEB3E
:100CA0008C04A1EB4401303102F8011D0A21BCFB88
:100CB000F1FE0EEB8E04ACEB44043034714602F8C6
:100CC000014D5B1EE7D1083F02F10804012FD8DB7C
:100CD00000F018FD02460B464046494600F020FD54
:100CE00000225B4600F0E2FA80468946CBE700BF6F
:100CF000A0860100000024400000F03F84D7974107
:100D00000DF10500201A0DF1050702E0401E761EC8
:100D10007F1C39783029F9D0662D02D136B2711C8A
:100D200003E0652D0CBF012100210B9A126B8B187B
:100D30001BB29842B8BF03461BB219001AD48142B5
:100D400004DAC85D3528A8BF392000DA3020CA1976
:100D5000521E00E05B1E12F80159491E8542F9D06F
:100D6000392802D1C85D401CC855002902D57F1E14
:100D70005B1C761C36B29DF830100B9800961BB2A7
:100D80003A4600F003F80DB0BDE8F08F2DE9F047CA
:100D900086B006468A4690461D4600F09EFD406A93
:100DA000376B90F80090012D02DA01250FF25828D8
:100DB0004AF02000BDF93840662808BF641C13D0F3
:100DC000672840F0878014F1040F72DBBC4270DAB0
:100DD00096F83800641C000702D4BD42B8BF2F4605
:100DE00024B23F1B48BF0027F068B16924B2012C30
:100DF00021DA30234A1C0B54012F03DA96F83810FD
:100E0000090702D502F80090521CB261E742B8BF50
:100E10007C4224B26142E7197162AF42B8BF3D46DD
:100E20002DB2F5612A46B3694146181800F0CAF997
:100E3000781BB062ADE00818A54216DA2A46414692
:100E400000F0C0F9B1696918B161601B7062012FCF
:100E500003DA96F83800000705D5F06801F800902D
:100E6000F069401CF061B76293E02246414600F011
:100E7000A9F9B06920182D1B012F03DA96F8381054
:100E8000090703D5F16800F80190401C2DB2B0614C
:100E9000AF42B8BF3D46F3682DB22A4604EB0801C5
:100EA000C01800F08FF9B0692818B061781B706223
:100EB0006FE0BD4204DA96F83810090758BF2F4694
:100EC0007F1E48BF0027BAF1670F0CBF4FF0650ABD
:100ED0004FF0450AB169F06818F8013B0B544A1C01
:100EE000012F05DA96F83810090758BFB26115D5F9
:100EF00002F80090531CB361012F0FDB6D1E2DB261
:100F0000AF42B8BF3D462DB22A464146181800F000
:100F100059F9B0692818B061781B7062B069F1683E
:100F200000EB0108200008F801AB03D42B2008F8DF
:100F3000010B03E02D2108F8011B6442002502AFDC
:100F400008E00A2200A800F0E1FC019807F8010B74
:100F50006D1C009C21B20129F3DA022D06DA4AF059
:100F60002000652804BF302008F8010B4DB930205F
:100F700008F8010B07E06D1E02A8285C303008F865
:100F8000010B012DF7DAB069F1684018A8EB0000F9
:100F9000F06196F8380000F0140010280DD1706947
:100FA000B1690818716A0818F1690818B16A081857
:100FB000716B8842BCBF081A306206B0BDE8F0878A
:100FC000F8B504460D4616461F46002004E0E86AC0
:100FD000401CE8627F1E002047B116F8011BA8687C
:100FE000A047A8600028F2D14FF0FF30F2BD00000A
:100FF000686A6C747A4C00006E616E004E414E005F
:10100000696E6600494E4600300050F8041B61B11D
:1010100050F8042BD30744BFA9F101039A18002309
:1010200042F8043B091FFAD1EFE770470278C9B2D2
:101030008A421AB11CBF10F8012FF9E718BF00202F
:101040007047000000F10103810704D010F8011B74
:1010500089B18107FAD10268B2F10131914311F0EF
:10106000803F04BF50F8042FF6E710F8011B11B1C0
:1010700010F8011BFBE7C01A70470000C9B28307D4
:1010800006D0521E22D310F8013B9942F7D11FE03F
:10109000083A13D302F1040241EA012141EA014175
:1010A00050F8043B121F21BF4B40A3F1013C2CEA36
:1010B000030C1CF0803FF3D0C9B2001F083210F8B7
:1010C000013B521E28BF91EA030FF8D818BF012038
:1010D000401E70471B4213D1094236D12AB18446C3
:1010E000B0FBF2F002FB10C2704700F017BCFCD35B
:1010F0000022002370470B000200002100207047EF
:10110000904271EB030CF6D370B5B1FA81F4B3FAE7
:1011100083F52C1BA340C4F1200532FA05F63343B6
:10112000A2405FF00046E64002E05B085FEA320260
:10113000841A71EB030524BF204629467641F4D377
:1011400002000B003000002170BD012ACFD970B51C
:10115000140C20D0B1FA81F4B2FA82F5C4F1200463
:101160006419B4F12006D6D3B2405FF00044F440D5
:10117000002502E052085FEA3303C61A71EB020E43
:1011800024BF3046714664416D41F3D302000B0029
:101190002000290070BD0C46B1FBF2F102FB1145A5
:1011A0002D0445EA1045B5FBF2F402FB145580B25C
:1011B00040EA0545B5FBF2F002FB105240EA04405C
:1011C00070BD000062B38B0708D0521E11F8013BBE
:1011D00000F8013B00F024808B07F6D1830740F034
:1011E000208000BF103A07D330B4B1E83810103A6D
:1011F000A0E83810F9D230BC530724BFB1E808107A
:10120000A0E8081044BF51F8043B40F8043BD20763
:1012100024BF31F8022B20F8022B44BF0B78037057
:101220007047083A07D3B1E80810083A40F8043B81
:1012300040F804CBF7D25307E4E730B4436803F037
:10124000004201211B031B0B436004BF0368002BFA
:1012500008D10DE00368DD0F45EA440444605B00FB
:101260000360491E4468E302F4D523031B0B43606B
:1012700043681A434260084630BC70474FF4001C74
:101280001CEB410F94BF1CEB430F09E041EA030C38
:1012900050EA4C0C52EA0C0C03D2994208BF90421F
:1012A000704714BF8B42824270470000B0B581EA9C
:1012B000030C0CF0004C40F2FF7515EA11541DBFF1
:1012C00015EA1357AC42AF4239E0E41923EA45531B
:1012D00043F48013C90241F0004141EA505EC70265
:1012E0001100A7FB020200284FF00000EEFB0120D6
:1012F0004FF00001E3FB072118BF42F00102401844
:1013000000214941E3FB0E01A4F580640F0302D2E2
:1013100052004041494154F101046CDD470872F12B
:10132000004250F1000051EB0451A1F580115CBF67
:1013300041EA0C01B0BD4CEA05510020B0BD05EA00
:101340001357AC4214BFAF4241E050EA410E1CBFFC
:1013500052EA430E02E061460020B0BD24423C4404
:101360001BD15FEA070EF6D0090302BF0146002039
:10137000AEF1140EB1FA81F7AEEB070401FA07FEE5
:101380000C37C7F1200100FA07F7C8404EEA000EFB
:1013900023EA455343F48013A2E733F00043B3FA42
:1013A00083F704BFB2FA82FE77440B3FE41BB7F128
:1013B000200E2FBF02FA0EF3BB40C7F1200E22FA17
:1013C0000EFE38BF43EA0E03BA40641C82E750EABF
:1013D000410E14BF52EA430E6FF000014FF40017A4
:1013E00017EB430F8ABF194617EB410FB5E74CEADD
:1013F00005510020B0BDD4F10104B4F120070FDA8B
:10140000C4F12007520828BF42F0010210FA07F584
:1014100001FA07F7E1BF2A43E0403843E1400FE01B
:10142000352C98DCC7F1200452EA400220FA07F27A
:1014300018BF42F0010231FA07F0A1400A4300212F
:1014400072F1004250F1000051EB0C01B0BD000000
:10145000F0B540F2FF7581EA030C0CF0004C15EA80
:1014600011541DBF15EA1357AC42AF42E5E0BC4131
:10147000C1F31301C3F31303801A994143F480139A
:1014800004D2641E4000494180185941C90241EA12
:101490005051B1FBF3F603FB1611A2FB0675D7EB17
:1014A000C020A94102D2761E80185941C90241EAE2
:1014B0005051B1FBF3FE03FB1E11A2FB0E75D7EBDF
:1014C000C020A94103D2AEF1010E80185941890212
:1014D00041EA9051760546EA8E2EB1FBF3F603FB06
:1014E0001611A2FB0675D7EB8020A94102D2761E09
:1014F00080185941C90241EA50514EEA060EB1FB2B
:10150000F3F603FB1611A2FB0675D7EBC020A94129
:1015100002D2761E80185941C90241EA5051B1FBEE
:10152000F3F703FB1711A2FB0735D3EBC020A9414A
:1015300067F100070CBF004247F0010766F3D527AB
:101540004FEA1E31B80814F5806412DDBD0775F14D
:10155000004250EB0E5051EB045111F5801F5CBF5F
:1015600041EA0C01F0BD4CF07F6141F0E041002008
:10157000F0BDBD076D0840EA0E5041F48011D4F172
:101580000104B4F120060ADAC4F120060200E040AA
:1015900001FA06F3E1401843B24015430EE0342C43
:1015A00013DCC6F1200445EA40056D0820FA06F276
:1015B000154321FA06F0A1400D43002175F10042C8
:1015C00050F1000051EB0C01F0BD00205FEA0C016E
:1015D000F0BDCFB992185B41B3FA83F704BFB2FAFA
:1015E00082F6BF190B3FB7F120062FBF02FA06F3B0
:1015F000BB40C7F1200622FA06F638BF3343BA4093
:101600001CB1E419641E33E77F4231F00041B1FAA6
:1016100081F404BFB0FA80F6A4190B3CB4F12006A3
:101620002FBF00FA06F1A140C4F1200620FA06F609
:1016300038BF3143A0403C1B1AE7AC421ABF05EA51
:101640001357AF4212E050EA41061CBF52EA43066C
:10165000BFE750EA4107304661461CBF41EA0551E9
:10166000F0BD52EA430C08BFC143F0BD00204FF467
:10167000001616EB410F98BF16EB430F08BF16EB91
:10168000410F24BFC14305E016EB430F0CBF614679
:101690004CEA0551F0BD0000F446400D40EAC1207F
:1016A000490006D200F014F8004248BF6FF0004035
:1016B000604700F00DF84FF0004188428CBF0846AB
:1016C00040426047400D40EAC120490080F00D8053
:1016D00040F00040490DA1F58061491C05D4D1F1CD
:1016E0001F0154BFC840C01770474FF0000070473B
:1016F000010040F10980F446404200F005F851F045
:1017000000416047010000BF09D0B0FA80F1884075
:10171000C91CC1F58461090501EBD0214005704762
:1017200070B44FF0004591EA030F44BF6B4000F0E6
:1017300001B900BF841A71EB030604D26E40001B8E
:10174000B141121973414FF4001C1CEB410F34BF1F
:101750007CEB430684E00C0DA4EB1356362E7DDCA7
:10176000012E43DC45EAC32343EA525312BFD2029F
:1017700092025B08240545EAC12141EA5051D2EBAF
:10178000C020994125D407D1B0FA80F610FA06F1AD
:1017900064D00020203608E0B1FA81F6B140C6F1ED
:1017A000200220FA02F21143B0404FEAF474B4EB85
:1017B000465434F001064FEA74040AD8D6F50016F0
:1017C000760D04F00044F04061FA06F25040F1401A
:1017D0004840C00A40EA415021F0004128BF5FEA7A
:1017E000500550F1000044EBD12137E045EAC32316
:1017F000DB0A45EAC121C90AB6F120050EDD42EA3D
:101800000242120CC5F1200603FA06F6EB4042EA4A
:1018100006056D42984161F100010DE062FA06F59E
:10182000F240554063FA06FC82EA0C02F3405A404B
:101830006D42904161EB030111F4801F05D1641EDC
:10184000620502D06D004041494121F480114308F6
:1018500075F1004350F1000041EB045170BC70473A
:101860001CEB410F15D223F0004352EA43060BD084
:101870004FEA4C0CBCEB410F04D80C0D661E342E05
:10188000B7DDEBE7801A994150EA410608BF002115
:10189000E4E708BF1CEB430F28BF6FF00001DDE752
:1018A00080B5134800F0B0F80FF2480101604160C4
:1018B0008160C1600161416181610FF23C0242625D
:1018C0008162C162016341630FF2300282630FF2F1
:1018D0003402C2630164416401BD10B5044800F0E4
:1018E00093F80446206808B9FFF7DAFF204610BDD8
:1018F0009C10FF1F000000002E00000066616C734A
:1019000065000000747275650000000091FBF2F341
:1019100003FB1211C0E9003170470000704700005E
:1019200070B44FF0004591EA030C44BF6B40FFF7E1
:1019300001BF00BF841A71EB030603D2001BB14143
:10194000121973414FF4001C1CEB410F34BF7CEBA8
:10195000430443E00C0DA4EB1356352E50DC45EA4E
:10196000C323DB0A45EAC121C912B6F120050DDD0A
:1019700063FA05F6EB4086EA0305124218BF45F00C
:101980000105C01851F100010CD213E062FA06F50E
:10199000F2405540F3415A40B340F3405A4080185A
:1019A000594107D349085FEA30005FEA350528BF8F
:1019B00045F0010501F58011420875F1004250F132
:1019C000000041EB045170BC4FF4001C1CEB410FB4
:1019D00038BF70470020090D090570471CEB410F07
:1019E00010D252EA43060BD0BCEB410F05D80C0DC8
:1019F000AB43661E342EB5DD02E0AB43801859417F
:101A000070BC704770BC7047704700000000000059
:101A100000000000000000000000000000000000C6
:101A2000000000000000000000004E6F6E4D61736A
:101A30006B61626C6500000000486172644661750C
:101A40006C740000000000004D656D4D616E6167B3
:101A5000656D656E7400004275734661756C740047
:101A600000000000000055736167654661756C7485
:101A70000000000000000000000000000000000066
:101A80000000000000000000000000000000000056
:101A90000000000000000000000000000000000046
:101AA0000000000000000000000000000000000036
:101AB00000535643616C6C00000000000000000001
:101AC00044656275674D6F6E69746F720000000047
:101AD0000000000000000000000000000000506551
:101AE0006E6453560000000000000000005379733C
:101AF0005469636B0000000000000000444D413059
:101B00000000000000000000000000444D413100D2
:101B100000000000000000000000444D41320000C1
:101B2000000000000000000000444D4133000000B0
:101B30000000000000000000444D4134000000009F
:101B400000000000000000444D413500000000008E
:101B5000000000000000444D41360000000000007D
:101B60000000000000444D4137000000000000006C
:101B700000000000444D413800000000000000005B
:101B8000000000444D41390000000000000000004A
:101B90000000444D41313000000000000000000012
:101BA00000444D4131310000000000000000000001
:101BB000444D4131320000000000000000000044AC
:101BC0004D41313300000000000000000000444D92
:101BD00041313400000000000000000000444D418D
:101BE000313500000000000000000000444D415F5E
:101BF0004572726F720000000000004D434D0000FE
:101C0000000000000000000000004654464C0000A8
:101C1000000000000000000000526561645F436F37
:101C20006C6C6973696F6E004C56445F4C5657007C
:101C3000000000000000004C4C57000000000000B5
:101C40000000000000005761746368646F67000063
:101C50000000000000524E4700000000000000009D
:101C60000000000049324330000000000000000086
:101C70000000004932433100000000000000000075
:101C80000000535049300000000000000000000038
:101C90000053504931000000000000000000000027
:101CA00053504932000000000000000000000043D3
:101CB000414E305F4F525F4D425F62756600434157
:101CC0004E305F4275735F4F666600000043414EC1
:101CD000305F4572726F72000000000043414E3069
:101CE0005F54785F5761726E696E6743414E305F33
:101CF00052785F5761726E696E6743414E305F572D
:101D0000616B655F557000000052657365727665A2
:101D100064353100000000005265736572766564B9
:101D20003532000000000043414E315F4F525F4D9D
:101D3000425F6275660043414E315F4275735F4F8B
:101D4000666600000043414E315F4572726F72005B
:101D50000000000043414E315F54785F5761726E5E
:101D6000696E6743414E315F52785F5761726E69A9
:101D70006E6743414E315F57616B655F5570000080
:101D800000526573657276656435390000000000A5
:101D90005265736572766564363000000000005548
:101DA000415254305F52585F545800000000554172
:101DB0005254305F4552520000000000005541521D
:101DC00054315F52585F545800000000554152543E
:101DD000315F45525200000000000055415254321C
:101DE0005F52585F54580000000055415254325F12
:101DF00045525200000000000055415254335F52DA
:101E0000585F54580000000055415254335F45520A
:101E10005200000000000055415254345F52585F98
:101E200054580000000055415254345F455252004E
:101E3000000000000055415254355F52585F54581D
:101E40000000000055415254355F455252000000D9
:101E5000000000414443300000000000000000008A
:101E60000000414443310000000000000000000079
:101E700000434D5030000000000000000000000052
:101E8000434D5031000000000000000000000043FE
:101E90004D503200000000000000000000004654D9
:101EA0004D30000000000000000000000046544DCE
:101EB00031000000000000000000000046544D32D8
:101EC0000000000000000000000000434D5400002E
:101ED0000000000000000000000052544300000019
:101EE0000000000000000000005265736572766516
:101EF00064383300000000005049543000000000F6
:101F000000000000000000504954310000000000B3
:101F100000000000000050495432000000000000A2
:101F20000000000000504954330000000000000091
:101F3000000000005044423000000000000000009B
:101F40000000005553423000000000000000000077
:101F500000005553424443440000000000000000CC
:101F600000454E45545F313538385F54696D6572B0
:101F7000454E45545F5472616E736D69740000453F
:101F80004E45545F52656365697665000000454EB5
:101F900045545F4572726F72000000000049325371
:101FA00030000000000000000000000053444843DF
:101FB0000000000000000000000000444143300029
:101FC0000000000000000000000044414331000018
:101FD00000000000000000000054534930000000E1
:101FE00000000000000000004D434700000000001A
:101FF000000000000000004C5054696D6572000044
:10200000000000000000526573657276656431302F
:102010003200000000504F52544100000000000008
:1020200000000000504F5254420000000000000029
:10203000000000504F525443000000000000000018
:102040000000504F52544400000000000000000007
:1020500000504F52544500000000000000000000F6
:102060005265736572766564313038000000005245
:102070006573657276656431303900000000526521
:10208000736572766564313130000000005265730B
:102090006572766564313131000000005265736508
:1020A00072766564313132000000005265736572EA
:1020B00076656431313300000000526573657276D5
:1020C00065643131340000000052657365727665D5
:1020D00064313135000000005265736572766564C5
:1020E00031313600000000526573657276656431E7
:1020F00031370000000052657365727665643131D6
:1021000038000000005265736572766564313139BC
:1021100000000000008003400090034000800B405E
:1021200000F00F4040F00F4080F00F40C0F00F4033
:1021300000F10F40F0000A1D3000180032001801B5
:10214000600018186400181A6E00181F7800131821
:102150007D00131A8200131C8C000E1296000E15BF
:10216000A0000E18AA000E1BB4000E1EC8000C1C06
:10217000E1000B1EFA000A1F00010908009004404C
:1021800000A0044000B0044000C0044000D004405F
:1021900000A0064000B0064000C0064000D0064047
:1021A00000A00E4000B00E40220400006A6E6B6C6E
:1021B000676D4E4F42354344E8030000E8030000DA
:1021C0004C1D0000941100000100000002040101F8
:1021D0003810FF1F8810FF1F3810FF1F3810FF1F17
:1021E0003810FF1F0D0CFF1FF40BFF1F0000000035
:1021F00000000000000000000000000000000000DF
:1022000000000000000000000000000080B55FF446
:10221000E131042000F080FA0FF2E131452000F0B6
:102220000AFC042000F0A0FB042000F0C7FB01BD65
:102230002DE9F0418046DFF8780480F80480DFF86B
:1022400070040068642880F21781DFF86404006875
:10225000DFF85C144018DFF8581409798171DFF851
:1022600050040068401CDFF848140860DFF84004A0
:1022700000682928C0F2AC80DFF834040068DFF879
:102280003014401810F8230CFF2840F0A180DFF82C
:1022900020040068DFF81814401810F8220C5528A4
:1022A00040F09680DFF808040068DFF80414401856
:1022B00010F8210CAA2840F08B80DFF8F4030068A6
:1022C000DFF8EC13401810F8200C102840F0808044
:1022D000DFF8DC03002180F86B10DFF8D40300681E
:1022E000293804002700DFF8C8030068401E874231
:1022F0000EDADFF8BC0390F86B00DFF8B41379183E
:1023000089790818DFF8A81381F86B007F1CEAE7C9
:10231000DFF89C0390F86B00DFF894130968DFF88E
:1023200090238918497988424ED100200700092F4F
:1023300048DA14EB8700DFF878134018807A5FF0F2
:10234000807114EB8702DFF86833D218D27A5FF419
:1023500080335A4301FB002014EB8701DFF8502340
:102360008918097B4FF4807202FB010014EB87018E
:10237000DFF83C238918497B50FA81F0060016F1FA
:10238000004F04D37FF00040801B050000E03500C3
:102390002800FFF7ADF9DFF81C2312EBC702C2E9F2
:1023A0000001DFF8100310EBC702D2E900010022A0
:1023B000C14BFFF74DF8BF4A12EBC702C2E900015B
:1023C0007F1CB4E700F0B5F8B9480021016056E081
:1023D000B7480068072852DBB5480068B449401880
:1023E00010F8010CFF284AD1B1480068B049405CA0
:1023F000552844D1AE480068AD4940184078AA2815
:102400003DD1AB480068AA4940188078772836D17A
:10241000A748002180F86B10A5480068C01F040081
:102420002700A3480068401E87420BDAA04890F8B6
:102430006B009F497918897908189D4981F86B00CC
:102440007F1CEEE79A4890F86B0099490968984A12
:102450008918497988420BD19548006894494018F9
:10246000017993480068924A8018C07800F07DF89E
:102470008F480021016002E08D4800210160BDE825
:10248000F08110B489B24FF4807291FBF2F2C0B2C5
:102490008A4B03F81020C0B2884A12EB400289B27E
:1024A0004FF4807391FBF3F404FB1314547010BCCD
:1024B000704770B58AB0002600AD8148016889B2C6
:1024C0000020FFF7DEFFFB2028706D1C6D202870B8
:1024D0006D1C252028706D1C761F6D36253600205A
:1024E000040078480078E4B284420AD2E4B2734827
:1024F000205C28706D1CE4B27048205C8619641C56
:10250000EFE72E706D1C262100A800F0ACF80AB091
:1025100070BD80B56748D0E9002300206A49FEF706
:10252000C5FEFFF7CFF86649086001BD70477047E8
:10253000704780B55F4AD2E91001FFF7ADF880B26D
:10254000002805D0022809D005D3032809D00BE0C4
:10255000FFF7DFFF08E0FFF7E9FF05E0FFF7E7FF20
:1025600002E0FFF7E5FFFFE701BD38B504000D000D
:10257000E4B2012C04D1EDB20A2D01D100F046FCE9
:10258000E4B2012C08D1EDB2062D05D14C48026809
:102590004E49002000F048FCE4B2012C08D1EDB215
:1025A000072D05D1464802684849082000F03CFC48
:1025B000E4B2012C08D1EDB2082D05D140480268E3
:1025C0004249022000F030FCE4B2012C08D1EDB207
:1025D000092D05D13A4802683C49032000F024FC4B
:1025E000E4B2012C08D1EDB20C2D05D134480268BB
:1025F0003649042000F018FC31BD000080B5344895
:1026000090F90000334951F820000079800607D581
:1026100000A9042000F08CF99DF80000FFF708FEE7
:102620002B4890F900002B4951F820000079000652
:1026300018D529480078411C274A1170C0B2274993
:10264000415649B2224890F9000000F080F9224832
:10265000007823490978884204D11D4890F9000088
:1026600000F0ACF901BD70B504000D0000200600BB
:10267000F6B2EDB2AE420CD2F6B2305D184909782E
:10268000164A885416480078401C15490870761C74
:10269000EEE70F4890F900000E4951F82000C0788D
:1026A000000604D40A4890F9000000F072F970BDE9
:1026B000C40EFF1FF80DFF1F0000F040A00EFF1F0B
:1026C000400EFF1FAC0BFF1F00005940404B4C0059
:1026D000AD0BFF1F940BFF1F9A10FF1F300FFF1F42
:1026E0009B10FF1F10B440B24109DFF808230123FB
:1026F00010F01F04A34042F8213010BC704710B402
:1027000040B24109DFF8F022012310F01F04A3407A
:1027100042F8213010BC70472DE9F84304000D0049
:1027200064B2002C08D0022C2CD018D3042C4FD02B
:102730003BD3052C5FD071E0DFF8C002006850F495
:102740008060DFF8B81208604FF44071662000F036
:102750004FFC4FF44071672000F04AFC5EE0DFF868
:102760009C02006850F40060DFF8901208604FF49B
:102770004071432000F03CFC4FF44071442000F0D5
:1027800037FC4BE0DFF87402006850F48050DFF84B
:102790006C1208604FF44071632000F029FC4FF484
:1027A0004071622000F024FC38E0DFF8500200683D
:1027B00050F40050DFF8441208604FF440712A20B2
:1027C00000F016FC4FF440712B2000F011FC25E0C6
:1027D000DFF82C02006850F48060DFF824120860F3
:1027E0004FF440714E2000F003FC4FF440714F2035
:1027F00000F0FEFB12E0DFF80802006850F4006011
:10280000DFF8FC1108604FF44071892000F0F0FB04
:102810004FF44071882000F0EBFBFFE764B2DFF873
:10282000E40150F82400C07810F0F30064B2DFF83F
:10283000D41151F82410C87064B2DFF8C80150F800
:10284000240064B2DFF8BC1151F82410897881703B
:1028500064B2002C02D064B2012C07D1DFF8A801C9
:1028600000684FF47A714843814606E0DFF89C0126
:1028700000684FF47A71484381462801B9FBF0F0B3
:102880000600B6B2B6F5005F02DB41F6FF70060047
:10289000B9FBF5F0B6B2B0EB06100700BFB2202FBF
:1028A00003DBDC215A4800F010FC64B2554850F8B4
:1028B0002400007810F0E0008046B6B2300A10F034
:1028C0001F0050EA080064B24E4951F82410087005
:1028D00064B24C4850F82400467064B2494850F83D
:1028E0002400807A10F0E000804664B2454850F839
:1028F000240017F01F0151EA0801817264B24148B7
:1029000050F82400007C50F0880064B23D4951F832
:102910002410087464B23B4850F82400C07850F08A
:102920000C0064B2374951F82410C870BDE8F18337
:1029300040B2344A52F8202012799206F8D540B2BB
:10294000304A52F8202092F907200A70704740B2AE
:102950002C4A52F8202012791206F8D540B2294AA2
:1029600052F82020D171704710B5040064B2254898
:1029700050F82400C07850F0200064B2214951F88A
:102980002410C87064B260002D3040B2FFF7AAFE78
:1029900010BD10B5040064B21A4850F82400C07885
:1029A00050F0800064B2174951F82410C87064B226
:1029B00060002D3040B2FFF795FE10BD10B5040049
:1029C00064B2104850F82400C07810F07F0064B260
:1029D0000C4951F82410C87064B20A4850F8240019
:1029E000C078800605D464B260002D3040B2FFF795
:1029F00086FE10BD00E100E080E100E0348004408C
:102A000028800440940BFF1F940EFF1F9C0EFF1F95
:102A1000E448000010B504004FF4007094FBF0F19E
:102A200001FB1041002903D01E210B4800F04DFB93
:102A30000A48046010BD38B504000D00074800685E
:102A40000749884203D03021034800F03EFB64B2BE
:102A5000034840F8245031BD5449000008ED00E01F
:102A60000000FF1FF8B504000D0016001F00DFF87E
:102A700068030021017064B2002C05D0022C35D00F
:102A80001DD3032C49D05EE0290049B2200040B29A
:102A900000F024F9DFF8440300683018DFF83C1335
:102AA0000860DFF83803002180F82410DFF82C03D9
:102AB000002180F82810380000F04AFC43E029008B
:102AC00049B2200040B200F009F9C448406830180B
:102AD000C2494860C148002180F82510BF48002144
:102AE00080F82910380000F036FC2CE0290049B2AB
:102AF000200040B200F0F2F8B84880683018B749BA
:102B00008860B648002180F82610B448002180F87B
:102B10002A10380000F01FFC15E0290049B22000FF
:102B200040B200F0DBF8AD48C0683018AB49C8606F
:102B3000AA48002180F82710A848002180F82B100F
:102B4000380000F005FCF1BD10B5A548A54909689D
:102B50000160A548A54909680160A04890F82800CF
:102B600000282AD19E480068FEF7CCFD0022A04B29
:102B7000FEF76EFC9F4CD4E90023FEF7D1FE9D4A80
:102B8000C2E9000195480068FEF7BCFD02000B0099
:102B9000984CD4E9000100F085FC0ED8002000F02C
:102BA000E2F88E48012180F828108C48002101604D
:102BB000904800220023C0E90023884890F82900AB
:102BC00000282AD188480068FEF79CFD0022884B27
:102BD000FEF73EFC884CD4E90023FEF7A1FE864AAE
:102BE000C2E900017D484068FEF78CFD02000B0041
:102BF000814CD4E9000100F055FC0ED8012000F012
:102C0000B2F87648012180F829107448002141600B
:102C1000794800220023C0E90023704890F82A0078
:102C200000282AD170480068FEF76CFD0022704B26
:102C3000FEF70EFC714CD4E90023FEF771FE6F4ADB
:102C4000C2E9000165488068FEF75CFD02000B00E8
:102C50006A4CD4E9000100F025FC0ED8022000F0F7
:102C600082F85E48012180F82A105C4800218160CA
:102C7000624800220023C0E90023584890F82B0046
:102C800000282AD156480068FEF73CFD0022584B28
:102C9000FEF7DEFB5A4CD4E90023FEF741FE584A0A
:102CA000C2E900014D48C068FEF72CFD02000B0090
:102CB000534CD4E9000100F0F5FB0ED8032000F0DE
:102CC00052F84648012180F82B1044480021C16089
:102CD0004B4800220023C0E9002310BD38B5040092
:102CE0000D003221200040B200F0D2FA64B2002C74
:102CF00005D0022C1DD00FD3032C27D032E06DB2AB
:102D0000002D04D100216A2000F03BFC03E00121EA
:102D10006A2000F036FC25E06DB2002D04D10121BF
:102D20006B2000F02EFC03E000216B2000F029FC5A
:102D300018E06DB2002D04D100216C2000F021FCC0
:102D400003E001216C2000F01CFC0BE06DB2002DB3
:102D500004D101216D2000F014FC03E000216D205E
:102D600000F00FFC31BD40B2002805D002281BD076
:102D70000ED3032824D02EE01849012281F8242004
:102D8000164900220A601F494FF47A720A6022E055
:102D90001249012281F82520104900224A601A496F
:102DA0004FF47A720A6016E00C49012281F826205D
:102DB0000A4900228A6014494FF47A720A600AE0D4
:102DC0000649012281F8272004490022CA600D49E2
:102DD0004FF47A720A607047780EFF1F440EFF1F8F
:102DE000700EFF1FBC0BFF1F740EFF1FC00BFF1FD9
:102DF00000408F40D80DFF1FE00DFF1FE80DFF1FA3
:102E0000F00DFF1F3010FF1F3410FF1F80B5002092
:102E1000FFF7A9FF0120FFF7A6FF0220FFF7A3FF9E
:102E20000320FFF7A0FF01BD70B504000D001600E0
:102E300064B2002C12D0022C42D028D3042C71D0C2
:102E400057D3062C7BD0C0F08780082C00F09E80E2
:102E5000C0F08F80092C00F0B280C8E033002A0057
:102E600000210020FFF7FEFD33002A000021012091
:102E7000FFF7F8FD33002A0000210220FFF7F2FDE2
:102E800033002A0000210320FFF7ECFDAFE0330000
:102E90002A0001210020FFF7E5FD33002A0001216F
:102EA0000120FFF7DFFD33002A0001210220FFF798
:102EB000D9FD33002A0001210320FFF7D3FD96E05E
:102EC00033002A0001210020FFF7CCFD33002A0047
:102ED00000210120FFF7C6FD33002A000021022057
:102EE000FFF7C0FD33002A0001210320FFF7BAFDE0
:102EF0007DE033002A0000210020FFF7B3FD3300FE
:102F00002A0001210120FFF7ADFD33002A00012135
:102F10000220FFF7A7FD33002A0000210320FFF75E
:102F2000A1FD64E033002A0000210120FFF79AFD93
:102F300033002A0000210220FFF794FD57E0330000
:102F40002A0000210020FFF78DFD33002A00002118
:102F50000320FFF787FD4AE033002A00012100200B
:102F6000FFF780FD33002A0001210320FFF77AFDDF
:102F70003DE033002A0001210120FFF773FD3300FB
:102F80002A0001210220FFF76DFD30E033002A0006
:102F900001210020FFF766FD33002A0000210120F7
:102FA000FFF760FD33002A0001210220FFF75AFDE0
:102FB00033002A0000210320FFF754FD17E03300FF
:102FC0002A0000210020FFF74DFD33002A000121D7
:102FD0000120FFF747FD33002A0000210220FFF700
:102FE00041FD33002A0001210320FFF73BFD70BDA6
:102FF00010B4294A12684FF40073C0B24409A340C8
:103000001A43254B1A60C0B24211244B53F82220B8
:10301000012310F01F04A340C2F8A030C0B210F08A
:103020001F02C0B243111D4C54F8233043F8221044
:1030300010BC704710B4184A12684FF40073C0B245
:103040004409A3401A43144B1A60C0B24211134BF7
:1030500053F82220012310F01F04A340C2F8A0302F
:1030600031F4E061C0B210F01F02C0B243110B4C4A
:1030700054F8233053F8222012F4E0621143C0B216
:1030800010F01F02C0B24311044C54F8233043F82F
:10309000221010BC7047000038800440800BFF1FD6
:1030A000DFF800F0410CFF1FDFF800F0710CFF1F8C
:1030B000BFF34F8F4448006810F4E0604349084371
:1030C00041490860BFF34F8FFEE738B504000D009B
:1030D000002000F0CDFA2A0021003D4800F000FB5E
:1030E000002000F0E2FA4FF47A7000F026FBF2E7DD
:1030F00038B504000D00210049B20420FFF727FC79
:10310000200032BD10B50024042000F02DFB042067
:1031100000F060FB002841D1002000F0A9FA042053
:1031200000F058FB012801D101200400002000F02C
:10313000BCFA284800F0D4FA4FF4FA7000F0FDFA17
:10314000E4B2012CEBD1042000F044FB0028E6D1CE
:10315000042000F03FFB002806D1002000F0A5FA73
:10316000642000F0EAFAF3E7042000F033FB0128C2
:1031700006D1002000F099FA322000F0DEFAF3E7E1
:10318000154800F0ADFAFFF78BFF642000F0D5FA88
:103190000020FFF789FFFFF78BFFC0E710BD10B5D8
:1031A0000E480468012000F080FAE4B20F200C49B8
:1031B00000FB0412E4B221000A4800F091FA4FF437
:1031C0007A7000F0BAFAEDE70CED00E00400FA05C1
:1031D000244A0000D84A0000584A000004ED00E0EC
:1031E0001004FF1FC049000080B500234FF47A721D
:1031F0000521002000F092FB00234FF47A72002199
:10320000012000F08BFB00234FF47A720121012092
:1032100000F084FB00234FF47A720421002000F0B8
:103220007DFB9948012180F828109748012180F8FA
:103230002A109548012180F82B109348012180F82D
:1032400029109148012180F824108F48012180F82D
:1032500026108D48012180F827108B48012180F825
:10326000251001BD80B5002201216A2000F032F94D
:10327000002201216B2000F02DF9002201216C2099
:1032800000F028F9002201216D2000F023F901BD92
:1032900038B504000D0064B2002C05D0022C2DD0EE
:1032A00017D3032C3FD052E0ADB22800FEF72AFA24
:1032B0000022764BFEF7CCF80022754BFDF7F6FFA7
:1032C000FEF7EAF980B202000521002000F0EBFBD6
:1032D0003DE0ADB22800FEF715FA00226B4BFEF779
:1032E000B7F80022694BFDF7E1FFFEF7D5F980B290
:1032F00002000021012000F0D6FB28E0ADB228003A
:10330000FEF700FA0022614BFEF7A2F800225F4BA5
:10331000FDF7CCFFFEF7C0F980B2020001210120C9
:1033200000F0C1FB13E0ADB22800FEF7EBF900227C
:10333000564BFEF78DF80022554BFDF7B7FFFEF711
:10334000ABF980B202000421002000F0ACFB31BDDB
:1033500050490860704750490860704780B54D4833
:1033600000684E490968884205D24C4800686438B4
:103370004A4908600AE049480068464909688842A5
:1033800004D24648006864304449086042480068F6
:1033900043490968884205D2414800686438404979
:1033A00008600AE03E4800683B490968884204D248
:1033B0003B48006864303A4908603848016800209A
:1033C00000F0E5FB36480168012000F0E0FB2E48E4
:1033D00090F82400002803D132210020FFF758FF85
:1033E000294890F82500002803D132210120FFF759
:1033F0004FFF254890F82600002803D132210220F3
:10340000FFF746FF204890F82700002803D132211B
:103410000320FFF73DFF1C4890F82400012808D145
:103420001E480068B0F57A7F03D100210020FFF725
:103430002FFF154890F82500012808D1184800688A
:10344000B0F57A7F03D100210120FFF721FF0E485C
:1034500090F82600012808D111480068B0F57A7F5D
:1034600003D100210220FFF713FF074890F827003F
:10347000012808D109480068B0F57A7F03D10021FE
:103480000320FFF705FF01BD440EFF1F0000594058
:103490000088C3403010FF1F3410FF1FBC0BFF1FFC
:1034A000C00BFF1F4FF4001C1CEB410F94BF1CEB23
:1034B000430F09E041EA030C50EA4C0C52EA0C0CB1
:1034C00003D28B4208BF8242704714BF9942904298
:1034D0007047000070B504000D0016004FF48071B5
:1034E0002000C0B2FFF784FD6DB2002D11D1E4B20F
:1034F00060115D4951F82000E4B261115A4A52F856
:1035000021104969012214F01F039A40914341613F
:1035100036E0E4B26011544951F82000E4B2611180
:10352000514A52F821104969012214F01F039A40B0
:1035300011434161F6B2002E11D1E4B260114A4943
:1035400051F820000068012114F01F0291408843C7
:10355000E4B26111444A52F82110086010E0E4B26C
:103560006011414951F820000068012114F01F0248
:1035700091400843E4B261113B4A52F821100860BF
:1035800070BD38B504000D00E4B26011364951F841
:103590002000406914F01F01C840C00703D4632114
:1035A0003248FFF792FDEDB2002D11D1E4B2601167
:1035B0002D4951F820000068012114F01F029140AC
:1035C0008843E4B26111284A52F82110086010E0E3
:1035D000E4B26011244951F820000068012114F080
:1035E0001F0291400843E4B261111F4A52F82110B2
:1035F000086031BD10B50400E4B260111A4951F8F9
:103600002000406914F01F01C840C00703D47B218B
:103610001648FFF75AFDE4B26011134951F8200033
:10362000012114F01F029140C16010BD10B50400CB
:10363000E4B260110C4951F82000406914F01F01F8
:10364000C840C00703D58C210848FFF73EFDE4B20F
:103650006011054951F82000006914F01F01C840AD
:1036600010F0010010BD0000240BFF1F04480000F3
:1036700010B5040064B2042C07DA0122012164B2FF
:103680001648205CFFF726FF0EE00420040020000F
:10369000441E40B2002807D00022012164B20F4826
:1036A000205CFFF717FFF2E710BD10B5040064B20D
:1036B000042C05DA64B20948205CFFF79BFF0CE09C
:1036C000042004002000441E40B2002805D064B24B
:1036D0000248205CFFF78EFFF4E710BDB80BFF1F18
:1036E0000EB400B582B003A90091024600AB0121DF
:1036F000034878440A30FCF78FFE06BC5DF810FBE7
:10370000B513000010B50400002C15D0B4F1807F73
:1037100003D329210F48FFF7D8FC0F48002101608F
:103720000E4804600E48002101600B48052101602D
:1037300009480068C003FBD510BD10B50400200087
:10374000441E002804D007480068FFF7DBFFF6E7B7
:1037500010BD0000B046000010E000E014E000E002
:1037600018E000E0940EFF1F10B5040064B2082CAE
:103770000DDA0022002164B22148205CFFF7AAFE86
:10378000032164B21E48205CFFF754FC14E00820BB
:1037900004002000441E40B200280DD00022002169
:1037A00064B21748205CFFF795FE032164B2144809
:1037B000205CFFF73FFCECE710BD10B5040064B2DD
:1037C0000F48205CFFF732FF002801D1002000E005
:1037D000012010BD10B50400200040B2FFF7EDFF3E
:1037E00000280AD10A20FFF7A8FF200040B2FFF707
:1037F000E4FF002801D1002000E0012010BD0000FE
:10380000B00BFF1F38B504000D0064B2002C03D0CC
:10381000022C66D049D380E0DFF82004006850F025
:103820008070DFF8181408606DB2002D0BD0022DE7
:1038300015D00ED3042D1ED017D3062D27D020D39C
:10384000072D2AD02FE04FF480614120FFF7D0FBF5
:103850002AE04FF440710420FFF7CAFB24E04FF444
:1038600040710520FFF7C4FB1EE04FF440710620B5
:10387000FFF7BEFB18E04FF440710720FFF7B8FBDD
:1038800012E04FF480616520FFF7B2FB0CE04FF4CB
:1038900080616620FFF7ACFB06E04FF48061672093
:1038A000FFF7A6FB00E038E037E0DFF890030068A0
:1038B00050F00070DFF8841308606DB2002D02D064
:1038C000012D06D00BE04FF440710C20FFF790FB68
:1038D00006E04FF440710D20FFF78AFB00E01CE08A
:1038E0001BE0DFF85C03006850F08070DFF85013D5
:1038F00008606DB2002D02D0012D06D00BE04FF410
:1039000040710A20FFF774FB06E04FF440710B2072
:10391000FFF76EFB00E000E0FFE731BD2DE9F84F57
:1039200004000D0016001F0064B2002C0ED064B21B
:10393000012C02D064B2022C02D16DB2022D05DB43
:1039400040F28511DFF8FC02FFF7BFFB290049B206
:10395000200040B2FFF756FFDFF8EC0200684FF49A
:103960007A71484380465FEA1840B0FBF6F0814622
:10397000002082461FFA89F959FA0AF0012802DB71
:103980001AF1010AF6E75FFA8AFABAF1080F05DBC5
:103990004FF4D071DFF8AC02FFF797FB38FA0AF06A
:1039A000B0FBF6F0814664B2DFF8A0021FFA89F995
:1039B00040F8249064B2002C03D0022C18D00CD311
:1039C00022E01FFA89F919F1010000FB07F042F229
:1039D0001071B0FBF1F0834616E01FFA89F919F176
:1039E000010000FB07F06421B0FBF1F083460BE01F
:1039F0001FFA89F919F1010000FB07F042F210717A
:103A0000B0FBF1F08346FFE76DB264B2DFF840022D
:103A100050F8240010EBC5006DB264B2DFF830122C
:103A200051F8241011EBC501C96831F00401C160DF
:103A30006DB264B2DFF8180250F8240010EBC50034
:103A40002821C16064B2DFF8080250F824005FFA50
:103A50008AFA1AF0070151F00801016064B2DFF838
:103A6000F00150F824001FFA89F9C0F8089064B2F8
:103A7000DFF8DC0150F824000021C1646DB264B2AB
:103A8000DFF8CC0150F8240010EBC5001FFA8BFBC7
:103A9000C0F810B064B2DFF8B80150F8240000217B
:103AA0004160BDE8F18F2DE9F04104000D001600E2
:103AB0005FF0000864B2002C0ED064B2012C02D07A
:103AC00064B2022C02D16DB2022D05DB4FF4F3710A
:103AD000DFF87001FFF7F9FA64B2002C03D0022C72
:103AE00015D00BD31EE042F21170864205D34FF47D
:103AF000F671DFF85001FFF7E8FA13E0652E05D301
:103B00004FF4F871DFF83C01FFF7DFFA0AE042F208
:103B10001170864205D34FF4FA71DFF82801FFF7E0
:103B2000D4FAFFE764B2DFF8240150F8240080469D
:103B300064B2002C03D0022C14D00AD31CE018F17C
:103B4000010000FB06F042F21071B0FBF1F007003B
:103B500012E018F1010000FB06F06421B0FBF1F067
:103B6000070009E018F1010000FB06F042F21071B5
:103B7000B0FBF1F00700FFE76DB264B2DFF8D000F0
:103B800050F8240010EBC5000761BDE8F0812DE975
:103B9000F04104000D00DFF8B00000684FF47A71C6
:103BA00048434610DFF8A00000684FF47A7148439C
:103BB0000600300CB0FBF5F007000020804637FA15
:103BC00008F0002802D018F10108F8E75FFA88F839
:103BD000B8F1080F05DB40F23B21DFF86800FFF782
:103BE00074FA36FA08F0B0FBF5F0070064B2DFF8BB
:103BF0005C0040F8247064B2DFF8540050F82400F0
:103C00005FFA88F818F0070151F00801016064B20A
:103C1000DFF83C0050F824000021C16464B2DFF8F2
:103C2000300050F82400876064B2DFF8240050F8B8
:103C3000240000214160BDE8F08100003C80044088
:103C400030800440944700009C0EFF1F7C0EFF1F35
:103C5000180BFF1FDFF800F0890DFF1F40B2DFF8DF
:103C6000941331F8201040B20128C0F2698140B2AB
:103C7000112880F26581DFF880230023137089B258
:103C8000312904DADFF870230023537076E089B21B
:103C9000612904DADFF86023012353706EE089B2F2
:103CA000912904DADFF850230223537066E089B2C9
:103CB000C12904DADFF84023032353705EE089B2A0
:103CC000F12904DADFF830230423537056E089B277
:103CD000B1F5907F04DCDFF82023052353704DE01D
:103CE00089B2B1F5A87F04DCDFF80C2306235370FA
:103CF00044E089B2B1F5C07F04DCDFF8FC22072381
:103D000053703BE089B2B1F5D87F04DCDFF8E822DC
:103D10000823537032E089B2B1F5F07F03DCB64A74
:103D2000092353702AE089B2B1F5047F03DCB24A5B
:103D30000A23537022E089B2B1F5107F03DCAE4A4A
:103D40000B2353701AE089B2B1F51C7F03DCAA4A39
:103D50000C23537012E089B2B1F5287F03DCA64A28
:103D60000D2353700AE089B2B1F5347F03DCA24A17
:103D70000E23537002E0A04A0F23537089B21A2910
:103D800003DA9D4A0023937069E089B2332903DA8C
:103D9000994A0123937062E089B24C2903DA964A6A
:103DA000022393705BE089B2652903DA924A032308
:103DB000937054E089B27E2903DA8F4A042393700A
:103DC0004DE089B2972903DA8B4A0523937046E0C8
:103DD00089B2B02903DA884A062393703FE089B29A
:103DE000C92903DA844A0723937038E089B2E229AB
:103DF00003DA814A0823937031E089B2FB2903DAA0
:103E00007D4A092393702AE089B2B1F58A7F03DAEB
:103E1000794A0A23937022E089B2B1F5967F03DCD8
:103E2000754A0B2393701AE089B2B1F5A37F03DAC8
:103E3000714A0C23937012E089B2B1F5AF7F03DCB5
:103E40006D4A0D2393700AE089B2B1F5BC7F03DAA5
:103E5000694A0E23937002E0674A0F23937089B278
:103E60001A2903DA644A0023D37069E089B233293E
:103E700003DA614A0123D37062E089B24C2903DA84
:103E80005D4A0223D3705BE089B2652903DA5A4A9E
:103E90000323D37054E089B27E2903DA564A0423FF
:103EA000D3704DE089B2972903DA534A0523D370C2
:103EB00046E089B2B02903DA4F4A0623D3703FE0C7
:103EC00089B2C92903DA4C4A0723D37038E089B292
:103ED000E22903DA484A0823D37031E089B2FB298A
:103EE00003DA454A0923D3702AE089B2B1F58A7F03
:103EF00003DA414A0A23D37022E089B2B1F5967FF2
:103F000003DC3D4A0B23D3701AE089B2B1F5A37FDD
:103F100003DA394A0C23D37012E089B2B1F5AF7FCE
:103F200003DC354A0D23D3700AE089B2B1F5BC7FBA
:103F300003DA314A0E23D37002E02F4A0F23D370E5
:103F4000704710B50400200040B2FFF787FE2B48F1
:103F5000007810F0FD00294908702848007850F0DA
:103F60001000264908702648B821017025480078BD
:103F7000C006FBD423480078C0F38100C0B20228F9
:103F8000F8D11D48C3781C4882781B4841781A48EC
:103F90000078FFF75FFE64B2164810EB840080786B
:103FA00010F01F001849087064B2124810EB84002A
:103FB000C07810F01F0050F04000144908701148FC
:103FC00000788006FBD50F4800784006FBD50C48EA
:103FD000007810F03F000A4908700A480078C0F3E2
:103FE0008100C0B20328F8D164B2024830F824003E
:103FF000C0B210BD380BFF1F7C0BFF1F01400640F5
:104000000040064006400640044006400540064089
:10401000DFF800F0CB300000DFF800F03B370000A5
:104020004D48F02101704C4800780006FBD54A4805
:1040300000787121084201D0002000E00120704783
:1040400080B54648006850F4002044490860444860
:10405000006850F40020424908603F48007800069C
:10406000FBD53D48F02101700A20FFF7D5FF01BDC7
:1040700010B582B00400A4B24FF4006000FB04F05D
:1040800000903848092101709DF8020036490870F7
:104090009DF801003549087035489DF80010017001
:1040A000FFF7BEFF002801D100200CE0A4B2002CD5
:1040B00008D17FF0010240F20C41200080B200F0F4
:1040C00003F800E0012016BD7CB504000D001600C9
:1040D000A4B24FF40060ADB200FB04500190ADB249
:1040E000042095FBF0F101FB1051002903D0EA21D7
:1040F0002048FFF78DFFADB2B5F5006F03DDEC2171
:104100001C48FFF785FF9DF80600174908709DF8C9
:1041100005001649087016489DF8041001700096B5
:104120009DF80300144908709DF8020013490870B7
:104130009DF801001249087012489DF800100170A6
:10414000084806210170FFF76BFF002801D100200D
:1041500000E0012076BD00000000024004F00140B4
:1041600008F001400700024006000240050002403E
:1041700004000240244700000B0002400A000240F5
:104180000900024008000240F0B4114E36683400C5
:104190000F4E366856F47F060D4F3E600E0616F041
:1041A000706656EA0076170517F470073E431F0441
:1041B00017F470273E43074F3E6000263500EDB2EE
:1041C0009D4201D26D1CFAE7014E3460F0BC70478D
:1041D00000F001404480044010B5002448480088A5
:1041E000401C4749088080B2002820D04448002164
:1041F0000180FEF7A9FC00200400E4B2032C16DACB
:10420000E4B2404850F82400401CE4B23D4941F873
:104210002400E4B23B4850F824003B49884204D3D0
:10422000E4B23848002140F82410641CE5E7374820
:104230000088401C3549088080B2022804DB3348DE
:1042400000210180FFF78AF831480088401C30497E
:10425000088080B2052802DB2D48002101802D480E
:104260000088401C2B49088080B20A2802DB2948BC
:104270000021018028480088401C2749088080B21E
:104280000F2804DBFEF715F923480021018023489D
:104290000088401C2149088080B2142802DB1F4896
:1042A000002101801E480088401C1D49088080B202
:1042B0001E2802DB1A48002101801A480088401C91
:1042C0001849088080B2322804DB1648002101809A
:1042D00000F050F814480088401C1349088080B250
:1042E000B0F57A7F05DB0020FFF7DFF90E480021EB
:1042F00001800E48006850F001000C49086010BDB4
:104300008810FF1F880EFF1F015A62028A10FF1FCC
:104310008C10FF1F8E10FF1F9010FF1F9210FF1FA9
:104320009410FF1F9610FF1F9810FF1F0C71034081
:1043300080B541F294134FF4967201210220FFF7E9
:10434000EDFA01BD41F64D5100B2884203DB41F662
:104350004C51080007E040F6FC0100B2884202DA46
:1043600040F6FC010800224900B208602149002201
:104370000A70704780B51E4800681F490968884266
:1043800002D11C48012101701B48006818490968C6
:10439000884205D2184800686430174908600AE06E
:1043A0001348006814490968884204D2124800681A
:1043B0006438114908601048006841F64D51884240
:1043C00004D30D4841F64C51016009E00A480068E9
:1043D00040F6FC01884203D2074840F6FC01016028
:1043E0000548026801210220FFF75DFB01BD0000C6
:1043F000C40BFF1FCC0BFF1FC80BFF1F80B500F0C5
:1044000095F800F02AF800F00AF8FEF77BFE01228A
:1044100001210420FFF75EF800F0A8F8FEE780B560
:104420000D20FFF78EFD33490860324800684FF4D5
:104430007A714843304908602F4800682F4909685D
:10444000C1F30361491CB0FBF1F02D4908605FF432
:10445000E1310420FEF760F901BD2DE9F843294858
:10446000294988420DD000208046B8F5826F08D2D5
:104470002448254951F8281040F8281018F101085F
:10448000F3E72048FEF7C6FA204807002048060058
:1044900020480400A01B80464046B0F101080028D7
:1044A00004D030783870761C7F1CF5E71A488146B6
:1044B0001A480500B5EB090080464046B0F10108F6
:1044C000002805D0002089F8000019F10109F4E75F
:1044D00013481449144A531A98464346B3F1010845
:1044E000002B04D00B780370491C401CF5E7BDE895
:1044F000F1830000980EFF1F940EFF1F44800440BC
:104500009C0EFF1F0000FF1F000000001004FF1F93
:104510000C1A00000C220000D80DFF1F9C10FF1F7A
:10452000100CFF1F10400000D841000080B500F0C3
:1045300008F80C4800884FF6FE71084009490880C9
:1045400001BDEFF3118072B607494CF220520A8088
:1045500005494DF628120A80C0B2002800D162B683
:1045600070470000002005400E20054080B5FFF791
:10457000DFFEFEF739FEFEF775FE0020FFF778F844
:1045800000F028F8FDF742FE00F04CF800F001F8CA
:10459000FCE780B540F6FC00FFF7D4FE0648007843
:1045A0000128FBD141F64C50FFF7CCFE02480078C1
:1045B0000128FBD101BD0000CC0BFF1F10B440B29D
:1045C00041090B4A012310F01F04A34042F8213097
:1045D00010BC704780B507480168002000F02AF839
:1045E00005495420FEF727FA4420FFF7E7FF01BDF5
:1045F00000E100E09C0EFF1FD941000010F007020F
:10460000064B1B6819004FF6FF031940044B53EA91
:1046100002231943014B1960704700000CED00E0C4
:104620000000FA0580B572B60220FFF7E7FF62B618
:1046300001BD000038B504000D00002D03D122217A
:104640001748FEF742FD1748006850F4000015496E
:10465000086015480021016064B2200113496A1EF8
:10466000425064B2114810EB0410C06850F00100D1
:1046700064B20E4911EB0411C86064B20B4810EB30
:10468000041080684008400064B2084911EB04112E
:10469000886064B2054810EB04100321816031BDCD
:1046A000744800003C8004400070034000710340E7
:1046B000433A5C55736572735C64756F79775C44DB
:1046C00065736B746F705CB7C9BFA85C6D797072ED
:1046D0006F6A656374335C636F6D70657469746968
:1046E0006F6EB4B4D2E2D7E95F335F33305F3135F8
:1046F000B5E33437B7D6D7F3D3D2313030C6B5C2ED
:10470000CAB8C4B1E4BEF9D4C85C436869705C73CC
:1047100072635C4D4B36305F5379735469636B2E13
:1047200063000000433A5C55736572735C64756F97
:1047300079775C4465736B746F705CB7C9BFA85CB4
:104740006D7970726F6A656374335C636F6D7065E9
:10475000746974696F6EB4B4D2E2D7E95F335F33C2
:10476000305F3135B5E33437B7D6D7F3D3D23130F4
:1047700030C6B5C2CAB8C4B1E4BEF9D4C85C436897
:1047800069705C7372635C4D4B36305F666C61734D
:10479000682E6300433A5C55736572735C64756F91
:1047A00079775C4465736B746F705CB7C9BFA85C44
:1047B0006D7970726F6A656374335C636F6D706579
:1047C000746974696F6EB4B4D2E2D7E95F335F3352
:1047D000305F3135B5E33437B7D6D7F3D3D2313084
:1047E00030C6B5C2CAB8C4B1E4BEF9D4C85C436827
:1047F00069705C7372635C4D4B36305F66746D2E0E
:1048000063000000433A5C55736572735C64756FB6
:1048100079775C4465736B746F705CB7C9BFA85CD3
:104820006D7970726F6A656374335C636F6D706508
:10483000746974696F6EB4B4D2E2D7E95F335F33E1
:10484000305F3135B5E33437B7D6D7F3D3D2313013
:1048500030C6B5C2CAB8C4B1E4BEF9D4C85C4368B6
:1048600069705C7372635C4D4B36305F6770696F63
:104870002E630000433A5C55736572735C64756F18
:1048800079775C4465736B746F705CB7C9BFA85C63
:104890006D7970726F6A656374335C636F6D706598
:1048A000746974696F6EB4B4D2E2D7E95F335F3371
:1048B000305F3135B5E33437B7D6D7F3D3D23130A3
:1048C00030C6B5C2CAB8C4B1E4BEF9D4C85C436846
:1048D00069705C7372635C4D4B36305F5049542E87
:1048E00063000000433A5C55736572735C64756FD6
:1048F00079775C4465736B746F705CB7C9BFA85CF3
:104900006D7970726F6A656374335C636F6D706527
:10491000746974696F6EB4B4D2E2D7E95F335F3300
:10492000305F3135B5E33437B7D6D7F3D3D2313032
:1049300030C6B5C2CAB8C4B1E4BEF9D4C85C4368D5
:1049400069705C7372635C4D4B36305F7561727475
:104950002E630000433A5C55736572735C64756F37
:1049600079775C4465736B746F705CB7C9BFA85C82
:104970006D7970726F6A656374335C636F6D7065B7
:10498000746974696F6EB4B4D2E2D7E95F335F3390
:10499000305F3135B5E33437B7D6D7F3D3D23130C2
:1049A00030C6B5C2CAB8C4B1E4BEF9D4C85C436865
:1049B00069705C7372635C6D6973632E63000000E1
:1049C0000A2A2A2A2A64656661756C745F697372A3
:1049D00020656E7465726564206F6E207665637401
:1049E0006F722025642A2A2A2A2A0A0A2573204956
:1049F0006E746572727570740000000010B507491E
:104A000079441831064C7C44163404E00A68081DC9
:104A1000511888470146A142F8D110BD2C00000072
:104A200038000000417373657274696F6E206661AF
:104A3000696C656420696E202573206174206C693F
:104A40006E652025640A0000C3C5FFFFC402000094
:104A5000D80DFF1F000000000ABDF8D0D0BDE2CB8A
:104A6000F8B2D9D7F7A3ACC7EBD6D8D0C2CBA2C87F
:104A7000EBB9CCBCFE00000000F00BF8002801D020
:104A8000FFF7BCFF0020C046C046FFF76FFD00F0F7
:104A900002F80120704700F001B8000007463846D0
:104AA00000F002F8FBE7000001491820ABBEFBE76D
:104AB0002600020038B504460D46284600F006F8E8
:104AC000A84218BF0024204632BD00000149FEF76D
:104AD0000FBB00BFD00BFF1F0ABDF8C8EBCBC0D186
:104AE000ADBBB7B5C8B4FDA3A1000000C046C04629
:104AF000C046C046FFF7C0FF0000000000000000F5
:104B000000000000000000000000000000000000A5
:104B100000000000FFFFFFFFFFFFFFFF000000009D
:104B20000000000000000000000000000000000085
:104B30000000000000000000000000000000000075
:104B4000FFFFFFFFFFFF000000000000000000006B
:104B50000000000000000000000000000000000055
:104B60000000000000000000000000000000000045
:104B70000000000000000000000000000000000035
:0400000500004AEDC0
:00000001FF
